:020000040800F2
:1000000000A000203D26000885260008852600085F
:1000100085260008852600088526000800000000C7
:10002000000000000000000000000000852600081D
:1000300085260008000000008526000885260008A7
:1000400000000000000000000000000000000000B0
:1000500000000000000000000000000000000000A0
:100060000000000000000000000000000000000090
:100070000000000000000000000000000000000080
:100080000000000000000000000000000000000070
:100090000000000000000000000000000000000060
:1000A0000000000000000000000000000000000050
:1000B0000000000000000000000000000000000040
:1000C0000000000000000000000000000000000030
:1000D0000000000000000000000000000000000020
:1000E0000000000000000000000000000000000010
:1000F0000000000000000000000000000000000000
:1001000000000000000000000000000000000000EF
:1001100000000000000000000000000000000000DF
:1001200000000000000000000000000000000000CF
:1001300000000000000000000000000000000000BF
:1001400000000000000000000000000000000000AF
:10015000000000000000000000000000000000009F
:10016000000000000000000000000000000000008F
:10017000000000000000000000000000000000007F
:08018000000000000000000077
:100188000348044B834202D0034B03B1184770471E
:10019800C00E0020C00E00200000000005480649DF
:1001A8000B1AD90F01EBA301491002D0034B03B17D
:1001B80018477047C00E0020C00E00200000000045
:1001C80010B5064C237843B9FFF7DAFF044B13B197
:1001D8000448AFF300800123237010BDC00E002037
:1001E800000000008826000808B5044B1BB104492C
:1001F8000448AFF30080BDE80840CFE700000000E6
:10020800C40E00208826000870B50D4E0D4D761BD3
:10021800B61006D0002455F8043B01349847A6428E
:10022800F9D1094E094D761B02F02AFAB61006D00C
:10023800002455F8043B01349847A642F9D170BD13
:10024800BC260008BC260008C0260008BC260008FA
:10025800830730B548D0541E002A3FD0CAB203469F
:1002680001E0013C3AD303F8012B9D07F9D1032C97
:100278002DD9CDB245EA05250F2C45EA054536D9D5
:10028800A4F1100222F00F0C03F1200EE6444FEA0D
:10029800121C03F1100242E9045542E902551032DA
:1002A8007245F8D10CF1010214F00C0F03EB0212A5
:1002B80004F00F0C13D0ACF1040323F00303043350
:1002C800134442F8045B9342FBD10CF003042CB1B5
:1002D800CAB21C4403F8012B9C42FBD130BD6446D2
:1002E8001346002CF4D1F9E703461446BFE71A4633
:1002F800A446E0E780B584B000AF78603960002399
:10030800FB6009E0FB687A6813441B78184600F024
:100318000BFAFB680133FB60FB683A689A42F1D834
:1003280000BF00BF1037BD4680BD000090B5C5B006
:1003380000AF07F58874A4F58274206007F588700B
:10034800A0F58470016007F58871A1F586710A60CF
:1003580007F58872A2F58872136007F58873A3F50C
:1003680080731846F0231A460021FFF771FF002317
:10037800C7F80C3154E0412387F80B3104E000F052
:10038800B5F9034687F80B3197F80B31672BF6D18F
:1003980000F096F90023C7F8043133E007F58873B5
:1003A800A3F58073D7F8042153F82210D7F80C214D
:1003B80013461B019B1A9B001A46D7F804311344B5
:1003C8001A4607F58873A3F582731B6813441B78D4
:1003D8001846D7F80C3107F58872A2F584721268AE
:1003E80013441B7800FB03F3194407F58873A3F53E
:1003F8008073D7F8042143F82210D7F80431013369
:10040800C7F80431D7F804313B2BC7DD00F063F996
:10041800722000F089F9D7F80C310133C7F80C3194
:1004280007F58873A3F58673D7F80C211B689A42E1
:10043800A1DB0023C7F8003121E007F58873A3F595
:100448008073D7F8002153F82220124BA3FB021324
:10045800D11A49080B4419090B465B015B1AD11ADA
:10046800D7F8003107F58872A2F58872126813442C
:10047800CAB21A70D7F800310133C7F80031D7F87B
:1004880000313B2BD9DD00BF00BF07F58A77BD4699
:1004980090BD00BF8510420880B592B000AF002320
:1004A8007B6007F10803382200211846FFF7D0FEC9
:1004B800084B7B64084B3B643B1D382206490548C2
:1004C800FFF734FF652000F02FF90123184648375D
:1004D800BD4680BD00000020880E0020B0B588B061
:1004E80000AF00F01FF800F06FF800F0BDF80C4BFB
:1004F8003C1D1D460FCD0FC495E8070003C422809C
:100508000234130C23703B1D1A211846FFF7F2FE24
:10051800FFF7C2FF002318462037BD46B0BD00BF15
:10052800A026000880B596B000AF0323FB624FF405
:10053800A0233B630023FB630023FB6407F12C0328
:10054800184600F025F90F23BB610123FB61002346
:100558003B6200237B620023BB6200237B6507F1BB
:100568001803796D184601F029F9154B5B69144A8F
:1005780043F400235361124B5B6903F400233B608F
:100588003B684FF4C0437B600123BB600023FB60E2
:1005980003233B613B1D19460A4801F099FA0122E1
:1005A8004FF40051074801F011FC01224FF480413B
:1005B800044801F00BFC00BF5837BD4680BD00BFA2
:1005C800001002400008004880B588B000AF4FF422
:1005D800C063FB6002233B6101237B610323BB6192
:1005E8000723FB611D4B5B691C4A43F400335361CD
:1005F8001A4B5B6903F40033BB60BB6807F10C035B
:1006080019464FF0904001F063FA154B154A1A60ED
:10061800134B4FF416425A60114B00229A60104B4C
:100628000022DA600E4B00221A610D4B00229A61FB
:100638000B4B0C225A61094B9B69084A43F48043CF
:100648009361064B9B6903F480437B607B68044895
:1006580001F01DFE00BF2037BD4680BD00100240DE
:10066800DC0E00200038014080B586B000AF134B87
:100678005B69124A43F400335361104B5B6903F41E
:1006880000333B603B684FF480537B600123BB60C1
:100698000023FB6003233B613B1D19464FF090404C
:1006A80001F016FA00224FF480514FF0904001F00B
:1006B8008DFB00BF1837BD4680BD00BF001002404B
:1006C80080B500AF01224FF480514FF0904001F007
:1006D8007DFB00BF80BD80B500AF00224FF4805184
:1006E8004FF0904001F072FB00BF80BD80B582B032
:1006F80000AF05E00A4B1B6A094A43F0080313627E
:10070800F91D41F288330122064801F0DEFE034656
:10071800002BEFD1FB7918460837BD4680BD00BFD6
:1007280000380140DC0E002080B584B000AF0346DD
:10073800FB71FB79FB7307F10F0141F2883301224A
:10074800034801F035FE00BF1037BD4680BD00BF2D
:10075800DC0E002080B400AF044B1B685A1C034910
:100768000A601846BD4680BC704700BF4C0F002089
:1007780080B400AF4FF4E1031846BD4680BC704713
:1007880080B400AF4FF4E1031846BD4680BC704703
:1007980080B5ADF5007D00AF07F50073A3F5FE73D6
:1007A80018600023C7F8F83107F50073A3F5FE7346
:1007B8001B681B6803F00103002B00F08081BE4B0F
:1007C8005B6803F00C03042B0CD0BB4B5B6803F095
:1007D8000C03082B5DD1B84B5B6803F48033B3F589
:1007E800803F56D14FF40033C7F8F431D7F8F431CD
:1007F80093FAA3F3C7F8F031D7F8F031B3FA83F3DB
:10080800DBB25B09DBB243F00103DBB2012B02D19F
:10081800A94B1B6815E04FF40033C7F8EC31D7F843
:10082800EC3193FAA3F3C7F8E8314FF40033C7F873
:10083800E431D7F8E43193FAA3F3C7F8E0319E4BDB
:100848005B6A4FF40032C7F8DC21D7F8DC2192FA52
:10085800A2F2C7F8D821D7F8D821B2FA82F252B258
:1008680042F0200252B2D2B202F01F02012101FA74
:1008780002F21340002B00F0218107F50073A3F565
:10088800FE731B685B68002B40F01881012300F0A1
:100898008CBF07F50073A3F5FE731B685B68B3F59F
:1008A800803F06D1844B1B68834A43F4803313602E
:1008B80036E007F50073A3F5FE731B685B68002B31
:1008C8000CD17D4B1B687C4A23F4803313607A4B30
:1008D8001B68794A23F48023136021E007F500732D
:1008E800A3F5FE731B685B68B3F5A02F0CD1724BA0
:1008F8001B68714A43F4802313606F4B1B686E4A70
:1009080043F4803313600BE06B4B1B686A4A23F493
:1009180080331360684B1B68674A23F48023136095
:10092800654BDB6A23F00F0207F50073A3F5FE732E
:100938001B689B6860491343CB6207F50073A3F5F6
:10094800FE731B685B68002B5AD0FFF703FFC7F8DC
:10095800F8010AE0FFF7FEFE0246D7F8F831D31A8D
:10096800642B02D9032300F020BF4FF40033C7F8EB
:10097800D431D7F8D43193FAA3F3C7F8D031D7F8E4
:10098800D031B3FA83F3DBB25B09DBB243F0010386
:10099800DBB2012B02D1484B1B6815E04FF4003342
:1009A800C7F8CC31D7F8CC3193FAA3F3C7F8C831DC
:1009B8004FF40033C7F8C431D7F8C43193FAA3F31E
:1009C800C7F8C0313C4B5B6A4FF40032C7F8BC2112
:1009D800D7F8BC2192FAA2F2C7F8B821D7F8B82103
:1009E800B2FA82F252B242F0200252B2D2B202F00D
:1009F8001F02012101FA02F21340002BAAD05EE087
:100A0800FFF7A8FEC7F8F8010AE0FFF7A3FE0246C1
:100A1800D7F8F831D31A642B02D9032300F0C5BEE6
:100A28004FF40033C7F8B431D7F8B43193FAA3F3CD
:100A3800C7F8B031D7F8B031B3FA83F3DBB25B094A
:100A4800DBB243F00103DBB2012B02D11A4B1B6866
:100A580015E04FF40033C7F8AC31D7F8AC3193FA4E
:100A6800A3F3C7F8A8314FF40033C7F8A431D7F877
:100A7800A43193FAA3F3C7F8A0310F4B5B6A4FF484
:100A88000032C7F89C21D7F89C2192FAA2F2C7F845
:100A98009821D7F89821B2FA82F252B242F0200295
:100AA80052B2D2B202F01F02012101FA02F213403F
:100AB800002BAAD103E000BF0010024000BF07F5D9
:100AC8000073A3F5FE731B681B6803F00203002B79
:100AD80000F07E81A64B5B6803F00C03002B0BD063
:100AE800A34B5B6803F00C03082B73D1A04B5B6826
:100AF80003F48033002B6DD10223C7F89431D7F863
:100B0800943193FAA3F3C7F89031D7F89031B3FA38
:100B180083F3DBB25B09DBB243F00103DBB2012BE9
:100B280002D1934B1B6813E00223C7F88C31D7F826
:100B38008C3193FAA3F3C7F888310223C7F88431BC
:100B4800D7F8843193FAA3F3C7F88031884B5B6AEE
:100B58000222C7F87C21D7F87C2192FAA2F2C7F8C2
:100B68007821D7F87821B2FA82F252B242F0200204
:100B780052B2D2B202F01F02012101FA02F213406E
:100B8800002B0AD007F50073A3F5FE731B681B69D9
:100B9800012B02D0012300F008BE754B1B6823F01F
:100BA800F80207F50073A3F5FE731B685969F8236B
:100BB800C7F87431D7F8743193FAA3F3C7F87031D2
:100BC800D7F87031B3FA83F301FA03F36849134392
:100BD8000B60FDE007F50073A3F5FE731B681B6946
:100BE800002B00F088800123C7F86C31D7F86C31EE
:100BF80093FAA3F3C7F86831D7F86831B3FA83F3E7
:100C080003F1845303F584139B001A4601231360F0
:100C1800FFF7A0FDC7F8F8010AE0FFF79BFD0246C1
:100C2800D7F8F831D31A022B02D9032300F0BDBD3F
:100C38000223C7F86431D7F8643193FAA3F3C7F8ED
:100C48006031D7F86031B3FA83F3DBB25B09DBB20A
:100C580043F00103DBB2012B02D1454B1B6813E0C3
:100C68000223C7F85C31D7F85C3193FAA3F3C7F8CD
:100C780058310223C7F85431D7F8543193FAA3F303
:100C8800C7F850313A4B5B6A0222C7F84C21D7F8B3
:100C98004C2192FAA2F2C7F84821D7F84821B2FAB3
:100CA80082F252B242F0200252B2D2B202F01F02D5
:100CB800012101FA02F21340002BAED02C4B1B6825
:100CC80023F0F80207F50073A3F5FE731B68596952
:100CD800F823C7F84431D7F8443193FAA3F3C7F897
:100CE8004031D7F84031B3FA83F301FA03F32049CE
:100CF80013430B606CE00123C7F83C31D7F83C3153
:100D080093FAA3F3C7F83831D7F83831B3FA83F335
:100D180003F1845303F584139B001A4600231360E0
:100D2800FFF718FDC7F8F8010AE0FFF713FD0246C0
:100D3800D7F8F831D31A022B02D9032300F035BDB6
:100D48000223C7F83431D7F8343193FAA3F3C7F83C
:100D58003031D7F83031B3FA83F3DBB25B09DBB259
:100D680043F00103DBB2012B04D1014B1B6815E0F2
:100D7800001002400223C7F82C31D7F82C3193FA1F
:100D8800A3F3C7F828310223C7F82431D7F8243150
:100D980093FAA3F3C7F82031C54B5B6A0222C7F860
:100DA8001C21D7F81C2192FAA2F2C7F81821D7F80B
:100DB8001821B2FA82F252B242F0200252B2D2B2F2
:100DC80002F01F02012101FA02F21340002BACD1FC
:100DD80007F50073A3F5FE731B681B6803F008038F
:100DE800002B00F00A8107F50073A3F5FE731B685A
:100DF8009B69002B73D00123C7F81431D7F814313D
:100E080093FAA3F3C7F81031D7F81031B3FA83F384
:100E18001A46A84B13449B001A4601231360FFF798
:100E280099FCC7F8F8010AE0FFF794FC0246D7F8E6
:100E3800F831D31A022B02D9032300F0B6BC0223DF
:100E4800C7F80C31D7F80C3193FAA3F3C7F8083177
:100E58000223C7F80431D7F8043193FAA3F207F54F
:100E68000073A3F580731A6007F50073A3F5827306
:100E780002221A6007F50073A3F582731B6893FAC0
:100E8800A3F207F50073A3F584731A60884B5A6AB6
:100E980007F50073A3F586730221196007F500733F
:100EA800A3F586731B6893FAA3F107F50073A3F5FE
:100EB8008873196007F50073A3F588731B68B3FA84
:100EC80083F35BB243F060035BB2DBB203F01F0352
:100ED800012101FA03F31340002BA5D08DE007F59B
:100EE8000073A3F58A7301221A6007F50073A3F54E
:100EF8008A731B6893FAA3F207F50073A3F58C7342
:100F08001A6007F50073A3F58C731B68B3FA83F3B3
:100F18001A46684B13449B001A4600231360FFF7D8
:100F280019FCC7F8F8010AE0FFF714FC0246D7F8E5
:100F3800F831D31A022B02D9032300F036BC07F587
:100F48000073A3F58E7302221A6007F50073A3F5E8
:100F58008E731B6893FAA3F207F50073A3F59073D9
:100F68001A6007F50073A3F5927302221A6007F559
:100F78000073A3F592731B6893FAA3F207F5007345
:100F8800A3F594731A6007F50073A3F5967302220C
:100F98001A6007F50073A3F596731B6893FAA3F21A
:100FA80007F50073A3F598731A60414B5A6A07F561
:100FB8000073A3F59A730221196007F50073A3F56E
:100FC8009A731B6893FAA3F107F50073A3F59C7352
:100FD800196007F50073A3F59C731B68B3FA83F3D4
:100FE8005BB243F060035BB2DBB203F01F03012185
:100FF80001FA03F31340002B96D107F50073A3F50C
:10100800FE731B681B6803F00403002B00F0A48127
:10101800002387F8FF31264BDB6903F08053002B50
:1010280016D1234BDB69224A43F08053D361204B0E
:10103800DB6903F0805207F50073A3F5FA731A60B1
:1010480007F50073A3F5FA731B68012387F8FF31CE
:10105800194B1B6803F48073002B1AD1164B1B68BD
:10106800154A43F480731360FFF774FBC7F8F8015F
:1010780009E0FFF76FFB0246D7F8F831D31A642B63
:1010880001D9032391E30C4B1B6803F48073002BF5
:10109800EFD007F50073A3F5FE731B68DB68012B1F
:1010A8000CD1034B1B6A024A43F0010313623BE075
:1010B80000100240208190100070004007F5007376
:1010C800A3F5FE731B68DB68002B0CD17F4B1B6AF2
:1010D8007E4A23F0010313627C4B1B6A7B4A23F090
:1010E8000403136220E007F50073A3F5FE731B6881
:1010F800DB68052B0CD1754B1B6A744A43F004035B
:101108001362724B1B6A714A43F0010313620BE0CE
:101118006E4B1B6A6D4A23F0010313626B4B1B6A0B
:101128006A4A23F00403136207F50073A3F5FE73FC
:101138001B68DB68002B00F08280FFF70BFBC7F809
:10114800F8010BE0FFF706FB0246D7F8F831D31A8F
:1011580041F28832934201D9032326E307F500734D
:10116800A3F59E7302221A6007F50073A3F59E7318
:101178001B6893FAA3F207F50073A3F5A0731A602E
:1011880007F50073A3F5A27302221A6007F500732E
:10119800A3F5A2731B6893FAA3F207F50073A3F5EE
:1011A800A4731A6007F50073A3F5A4731B68B3FA58
:1011B80083F3DBB25B09DBB243F00203DBB2022B41
:1011C80002D1424B1B6A13E007F50073A3F5A6731F
:1011D80002221A6007F50073A3F5A6731B6893FA39
:1011E800A3F207F50073A3F5A8731A60374B5B6A7F
:1011F80007F50072A2F5AA720221116007F50072C4
:10120800A2F5AA72126892FAA2F107F50072A2F585
:10121800AC72116007F50072A2F5AC721268B2FAEE
:1012280082F252B242F0400252B2D2B202F01F022F
:10123800012101FA02F21340002B83D082E0FFF76C
:1012480089FAC7F8F8010BE0FFF784FA0246D7F8E5
:10125800F831D31A41F28832934201D90323A4E228
:1012680007F50073A3F5AE7302221A6007F5007341
:10127800A3F5AE731B6893FAA3F207F50073A3F501
:10128800B0731A6007F50073A3F5B27302221A60EF
:1012980007F50073A3F5B2731B6893FAA3F207F579
:1012A8000073A3F5B4731A6007F50073A3F5B4735C
:1012B8001B68B3FA83F3DBB25B09DBB243F00203CA
:1012C800DBB2022B04D1014B1B6A15E0001002406F
:1012D80007F50073A3F5B67302221A6007F50073C9
:1012E800A3F5B6731B6893FAA3F207F50073A3F589
:1012F800B8731A60AD4B5B6A07F50072A2F5BA7253
:101308000221116007F50072A2F5BA72126892FA0A
:10131800A2F107F50072A2F5BC72116007F5007220
:10132800A2F5BC721268B2FA82F252B242F04002DE
:1013380052B2D2B202F01F02012101FA02F21340A6
:10134800002B81D197F8FF31012B05D1974BDB6931
:10135800964A23F08053D36107F50073A3F5FE7313
:101368001B68DB69002B00F01F82904B5B6803F061
:101378000C03082B00F0168207F50073A3F5FE7323
:101388001B68DB69022B40F0668107F50073A3F543
:10139800BE734FF080721A6007F50073A3F5BE7331
:1013A8001B6893FAA3F207F50073A3F5C0731A60DC
:1013B80007F50073A3F5C0731B68B3FA83F303F151
:1013C800845303F584139B001A4600231360FFF728
:1013D800C1F9C7F8F8010AE0FFF7BCF90246D7F8E7
:1013E800F831D31A724A934201D90323DDE107F594
:1013F8000073A3F5C2734FF000721A6007F500730B
:10140800A3F5C2731B6893FAA3F207F50073A3F55B
:10141800C4731A6007F50073A3F5C4731B68B3FAA5
:1014280083F3DBB25B09DBB243F00103DBB2012BD0
:1014380002D15E4B1B6827E007F50073A3F5C6735E
:101448004FF000721A6007F50073A3F5C6731B68A6
:1014580093FAA3F207F50073A3F5C8731A6007F5AA
:101468000073A3F5CA734FF000721A6007F5007392
:10147800A3F5CA731B6893FAA3F207F50073A3F5E3
:10148800CC731A60494B5B6A07F50072A2F5CE72FD
:101498004FF00071116007F50072A2F5CE72126864
:1014A80092FAA2F107F50072A2F5D072116007F561
:1014B8000072A2F5D0721268B2FA82F252B242F009
:1014C800200252B2D2B202F01F02012101FA02F246
:1014D8001340002B80D1354B5B6823F4741207F559
:1014E8000073A3F5FE731B68596A07F50073A3F52B
:1014F800FE731B681B6A0B432C4913434B6007F5AB
:101508000073A3F5D2734FF080721A6007F5007369
:10151800A3F5D2731B6893FAA3F207F50073A3F53A
:10152800D4731A6007F50073A3F5D4731B68B3FA74
:1015380083F303F1845303F584139B001A460123B4
:101548001360FFF707F9C7F8F8010AE0FFF702F997
:101558000246D7F8F831D31A154A934201D9032322
:1015680023E107F50073A3F5D6734FF000721A60F4
:1015780007F50073A3F5D6731B6893FAA3F207F572
:101588000073A3F5D8731A6007F50073A3F5D87331
:101598001B68B3FA83F3DBB25B09DBB243F00103E8
:1015A800DBB2012B06D1014B1B682BE00010024077
:1015B800400D030007F50073A3F5DA734FF00072CE
:1015C8001A6007F50073A3F5DA731B6893FAA3F2A0
:1015D80007F50073A3F5DC731A6007F50073A3F52C
:1015E800DE734FF000721A6007F50073A3F5DE731F
:1015F8001B6893FAA3F207F50073A3F5E0731A606A
:101608006C4B5B6A07F50072A2F5E2724FF000714D
:10161800116007F50072A2F5E272126892FAA2F15F
:1016280007F50072A2F5E472116007F50072A2F5E1
:10163800E4721268B2FA82F252B242F0200252B256
:10164800D2B202F01F02012101FA02F21340002B6C
:101658003FF47CAFA8E007F50073A3F5E6734FF0FD
:1016680080721A6007F50073A3F5E6731B6893FA96
:10167800A3F207F50073A3F5E8731A6007F5007382
:10168800A3F5E8731B68B3FA83F303F1845303F5F6
:1016980084139B001A4600231360FFF75BF8C7F812
:1016A800F8010AE0FFF756F80246D7F8F831D31ADE
:1016B800414A934201D9032377E007F50073A3F564
:1016C800EA734FF000721A6007F50073A3F5EA7326
:1016D8001B6893FAA3F207F50073A3F5EC731A607D
:1016E80007F50073A3F5EC731B68B3FA83F3DBB259
:1016F8005B09DBB243F00103DBB2012B02D12D4BB6
:101708001B6827E007F50073A3F5EE734FF000722E
:101718001A6007F50073A3F5EE731B6893FAA3F23A
:1017280007F50073A3F5F0731A6007F50073A3F5C6
:10173800F2734FF000721A6007F50073A3F5F273A5
:101748001B6893FAA3F207F50073A3F5F4731A6004
:10175800184B5B6A07F50072A2F5F6724FF000713C
:10176800116007F50072A2F5F672126892FAA2F1FA
:1017780007F50072A2F5F872116007F50072A2F57C
:10178800F8721268B2FA82F252B242F0200252B2F1
:10179800D2B202F01F02012101FA02F21340002B1B
:1017A80080D101E0012300E00023184607F5007707
:1017B800BD4680BD00100240400D030080B59CB0BE
:1017C80000AF786039600023FB66984B1B6803F014
:1017D80007033A689A4210D9944B1B6823F0070212
:1017E80092493B6813430B60904B1B6803F0070357
:1017F8003A689A4201D001235AE17B681B6803F0DA
:101808000203002B08D08A4B5B6823F0F0027B6848
:101818009B68874913434B607B681B6803F001038F
:10182800002B00F00D817B685B68012B3DD14FF4E4
:101838000033BB66BB6E93FAA3F37B667B6EB3FA89
:1018480083F3DBB25B09DBB243F00103DBB2012BAC
:1018580002D1774B1B680FE04FF400333B663B6EB9
:1018680093FAA3F3FB654FF40033BB65BB6D93FAA2
:10187800A3F37B656E4B5B6A4FF400323A653A6DB1
:1018880092FAA2F2FA64FA6CB2FA82F252B242F016
:10189800200252B2D2B202F01F02012101FA02F272
:1018A8001340002B7DD1012302E17B685B68022B8A
:1018B8003DD14FF00073BB64BB6C93FAA3F37B6418
:1018C8007B6CB3FA83F3DBB25B09DBB243F0010351
:1018D800DBB2012B02D1564B1B680FE04FF00073AF
:1018E8003B643B6C93FAA3F3FB634FF00073BB6359
:1018F800BB6B93FAA3F37B634D4B5B6A4FF00072AB
:101908003A633A6B92FAA2F2FA62FA6AB2FA82F28D
:1019180052B242F0200252B2D2B202F01F020121AA
:1019280001FA02F21340002B3BD10123C0E002234D
:10193800BB62BB6A93FAA3F37B627B6AB3FA83F355
:10194800DBB25B09DBB243F00103DBB2012B02D14E
:10195800374B1B680DE002233B623B6A93FAA3F303
:10196800FB610223BB61BB6993FAA3F37B61304B34
:101978005B6A02223A613A6992FAA2F2FA60FA685C
:10198800B2FA82F252B242F0200252B2D2B202F05D
:101998001F02012101FA02F21340002B01D1012399
:1019A80086E0234B5B6823F003027B685B68204971
:1019B80013434B60FEF7CEFEF8667B685B68012B2D
:1019C80012D10AE0FEF7C6FE0246FB6ED31A41F2B8
:1019D8008832934201D903236AE0154B5B6803F010
:1019E8000C03042BEED12BE07B685B68022B21D122
:1019F8000AE0FEF7AFFE0246FB6ED31A41F28832C8
:101A0800934201D9032353E0094B5B6803F00C03AD
:101A1800082BEED114E0FEF79DFE0246FB6ED31AAA
:101A280041F28832934205D9032341E00020024065
:101A380000100240204B5B6803F00C03002BEAD136
:101A48001E4B1B6803F007033A689A4210D21B4BDF
:101A58001B6823F0070219493B6813430B60174BB7
:101A68001B6803F007033A689A4201D001231FE07C
:101A78007B681B6803F00403002B08D00E4B5B68DF
:101A880023F4E0627B68DB680B4913434B607B6897
:101A98001B6803F00803002B09D0074B5B6823F48D
:101AA80060527B681B69DB00034913434B600023CA
:101AB80018467037BD4680BD001002400020024025
:101AC80080B400AF4FF4E1031846BD4680BC7047B0
:101AD80080B487B000AF7860396000237B61002351
:101AE800FB6000233B6154E13B681A6801217B6974
:101AF80001FA03F31340FB60FB68002B00F04681FA
:101B08003B685B68022B03D03B685B68122B23D1D0
:101B18007B69DA087B68083253F822303B617B69BD
:101B280003F007039B000F2202FA03F3DB433A6931
:101B380013403B613B681A697B6903F007039B000C
:101B480002FA03F33A6913433B617B69DA087B685D
:101B58000832396943F822107B681B683B617B694E
:101B68005B00032202FA03F3DB433A6913403B614B
:101B78003B685B6803F003027B695B0002FA03F3CE
:101B88003A6913433B617B683A691A603B685B6852
:101B9800012B0BD03B685B68022B07D03B685B6866
:101BA800112B03D03B685B68122B30D17B689B6894
:101BB8003B617B695B00032202FA03F3DB433A696A
:101BC80013403B613B68DA687B695B0002FA03F308
:101BD8003A6913433B617B683A699A607B685B6842
:101BE8003B6101227B6902FA03F3DB433A69134044
:101BF8003B613B685B681B0903F001027B6902FAE1
:101C080003F33A6913433B617B683A695A607B681E
:101C1800DB683B617B695B00032202FA03F3DB4369
:101C28003A6913403B613B689A687B695B0002FA3A
:101C380003F33A6913433B617B683A69DA603B68AE
:101C48005B6803F08053002B00F0A080584B9B6921
:101C5800574A43F001039361554B9B6903F0010315
:101C6800BB60BB68534A7B699B08023352F8233038
:101C78003B617B6903F003039B000F2202FA03F325
:101C8800DB433A6913403B617B68B3F1904F19D04D
:101C98007B68494A934213D07B68484A93420DD0E7
:101CA8007B68474A934207D07B68464A934201D1F2
:101CB800042308E0052306E0032304E0022302E0EE
:101CC800012300E000237A6902F0030292009340A6
:101CD8003A6913433B6137497B699B0802333A6988
:101CE80041F82320384B1B683B61FB68DB433A69AA
:101CF80013403B613B685B6803F48033002B03D0DF
:101D08003A69FB6813433B612F4A3B6913602E4BCA
:101D18005B683B61FB68DB433A6913403B613B68A6
:101D28005B6803F40033002B03D03A69FB68134364
:101D38003B61254A3B695360234B9B683B61FB68C9
:101D4800DB433A6913403B613B685B6803F48013EB
:101D5800002B03D03A69FB6813433B611A4A3B697D
:101D68009360194BDB683B61FB68DB433A691340BE
:101D78003B613B685B6803F40013002B03D03A69AE
:101D8800FB6813433B61104A3B69D3607B690133AD
:101D98007B613B681A687B6922FA03F3002B7FF4A6
:101DA800A3AE00BF00BF1C37BD4680BC704700BF54
:101DB80000100240000001400004004800080048EC
:101DC800000C0048001000480004014080B483B0B3
:101DD80000AF78600B467B8013467B707B78002BC6
:101DE80003D07A887B689A6102E07A887B689A6275
:101DF80000BF0C37BD4680BC7047000080B586B078
:101E080000AF78600023FB601023FB7500237B8103
:101E18000023BB820023FB747B689A687B681B697C
:101E28001A437B685B691A437B68DB691343FB6071
:101E38007B681B681B6823F4164323F00C037A683D
:101E48001268F9680B4313607B681B685B6823F4AE
:101E580040517B68DA687B681B680A435A607B6874
:101E68009A697B681B6A1343FB607B681B689B68E5
:101E780023F430617B681B68FA680A439A607B68C0
:101E88001B68A14A934220D1A04B1B6B03F00303AC
:101E9800032B17D801A252F823F000BFB51E000883
:101EA800C11E0008C71E0008BB1E00080123FB75E1
:101EB800B5E00223FB75B2E00423FB75AFE008230D
:101EC800FB75ACE01023FB75A9E07B681B68904AA2
:101ED800934224D18D4B1B6B03F44033B3F5403F41
:101EE80011D0B3F5403F17D8B3F5003F11D0B3F583
:101EF800003F11D8002B03D0B3F5803F06D00BE08C
:101F08000023FB758BE00223FB7588E00423FB7537
:101F180085E00823FB7582E01023FB757FE07B6872
:101F28001B687C4A934224D1784B1B6B03F44023F3
:101F3800B3F5402F11D0B3F5402F17D8B3F5002FC4
:101F480011D0B3F5002F11D8002B03D0B3F5802F93
:101F580006D00BE00023FB7561E00223FB755EE011
:101F68000423FB755BE00823FB7558E01023FB7521
:101F780055E07B681B68684A934224D1634B1B6B0E
:101F880003F44013B3F5401F11D0B3F5401F17D821
:101F9800B3F5001F11D0B3F5001F11D8002B03D0E3
:101FA800B3F5801F06D00BE00023FB7537E0022352
:101FB800FB7534E00423FB7531E00823FB752EE044
:101FC8001023FB752BE07B681B68544A934224D18D
:101FD8004E4B1B6B03F44003B3F5400F11D0B3F520
:101FE800400F17D8B3F5000F11D0B3F5000F11D873
:101FF800002B03D0B3F5800F06D00BE00023FB7550
:102008000DE00223FB750AE00423FB7507E00823B3
:10201800FB7504E01023FB7501E01023FB757B685A
:10202800DB69B3F5004F7BD1FB7D082B56D801A2A5
:1020380052F823F0612000087D200008992000084C
:10204800E5200008B3200008E5200008E520000886
:10205800E5200008CF200008FEF792FB03465A004F
:102068007B685B685B081A447B685B68B2FBF3F3C8
:10207800BB8236E0FFF724FD03465A007B685B68A5
:102088005B081A447B685B68B2FBF3F3BB8228E009
:102098007B685B685B0803F1F47303F590437A6827
:1020A8005268B3FBF2F3BB821BE0FEF761FB034609
:1020B8005A007B685B685B081A447B685B68B2FB04
:1020C800F3F3BB820DE07B685B685B0803F5803245
:1020D8007B685B68B2FBF3F3BB8202E00123FB740D
:1020E80000BFBB8A23F00F037B81BB8A5B109BB2C6
:1020F80003F007039AB27B8913437B817B681B68D3
:102108007A89DA6075E000BF0038014000100240AB
:102118000044004000480040004C0040005000408F
:10212800FB7D082B62D801A252F823F05921000840
:102138007921000899210008F5210008B921000833
:10214800F5210008F5210008F5210008D92100082B
:10215800FEF716FB02467B685B685B081A447B68DF
:102168005B68B2FBF3F39AB27B681B68DA6040E005
:10217800FFF7A6FC02467B685B685B081A447B682D
:102188005B68B2FBF3F39AB27B681B68DA6030E0F5
:102198007B685B685B0803F5740303F510537A6882
:1021A8005268B3FBF2F39AB27B681B68DA6020E0EE
:1021B800FEF7DEFA02467B685B685B081A447B68B8
:1021C8005B68B2FBF3F39AB27B681B68DA6010E0D5
:1021D8007B685B685B0803F500427B685B68B2FB61
:1021E800F3F39AB27B681B68DA6002E00123FB74A0
:1021F80000BFFB7C18461837BD4680BD80B586B049
:1022080002AF78600023FB607B680022DA66FEF785
:10221800A1FAF8607B681B681B6803F00803082BA9
:102228000ED16FF07E430093FB6800224FF400113B
:10223800786800F073F80346002B01D0032322E0EE
:102248007B681B681B6803F00403042B0ED16FF036
:102258007E430093FB6800224FF48001786800F009
:102268005DF80346002B01D003230CE07B68202295
:1022780083F869207B68202283F86A207B68002223
:1022880083F86820002318461037BD4680BD80B506
:1022980082B000AF78607B68002B01D1012339E060
:1022A8007B6893F86930DBB2002B03D17B6800228E
:1022B80083F868207B68242283F869207B681B6880
:1022C8001A687B681B6822F001021A607868FFF7B9
:1022D80095FD0346012B01D101231BE07B681B6898
:1022E8005A687B681B6822F490425A607B681B68B6
:1022F8009A687B681B6822F02A029A607B681B68D0
:102308001A687B681B6842F001021A607868FFF758
:1023180075FF034618460837BD4680BD80B584B0B2
:1023280000AFF860B9603B601346FB712CE0BB69F5
:10233800B3F1FF3F28D0BB69002B07D0FEF70AFA9C
:1023480002463B68D31ABA699A421DD2FB681B68D9
:102358001A68FB681B6822F4D0721A60FB681B6855
:102368009A68FB681B6822F001029A60FB682022C9
:1023780083F86920FB68202283F86A20FB68002222
:1023880083F8682003230FE0FB681B68DA69BB68E1
:102398001340BA689A420CBF01230023DBB21A46E5
:1023A800FB799A42C3D0002318461037BD4680BD3A
:1023B80080B588B002AFF860B9603B601346FB8017
:1023C80000237B61FB6893F86930DBB2202B77D15F
:1023D800BB68002B02D0FB88002B01D1012370E0E1
:1023E800FB6893F86830012B01D1022369E0FB6890
:1023F800012283F86820FB680022DA66FB68212244
:1024080083F86920FEF7A6F97861FB68FA88A3F8D3
:102418005020FB68FA88A3F8522034E0FB68B3F830
:1024280052309BB2013B9AB2FB68A3F852203B683A
:1024380000937B6900228021F868FFF76FFF03464D
:10244800002B01D003233CE0FB689B68B3F5805F59
:1024580011D1FB681B69002B0DD1BB683B613B693F
:102468001A88FB681B68C2F3080292B21A85BB6817
:102478000233BB6007E0BB685A1CBA601A78FB6875
:102488001B6892B21A85FB68B3F852309BB2002BD6
:10249800C4D13B6800937B6900224021F868FFF7AC
:1024A8003DFF0346002B01D003230AE0FB682022EE
:1024B80083F86920FB68002283F86820002300E085
:1024C800022318461837BD4680BD80B58AB002AFD2
:1024D800F860B9603B601346FB800023FB61FB6832
:1024E80093F86A30DBB2202B40F09F80BB68002B4A
:1024F80002D0FB88002B01D1012397E0FB6893F8F9
:102508006830012B01D1022390E0FB68012283F897
:102518006820FB681B684FF0FF321A62FB680022D4
:10252800DA66FB68222283F86A20FEF713F9F8615D
:10253800FB68FA88A3F85820FB68FA88A3F85A20A1
:10254800FB689B68B3F5805F0ED1FB681B69002BA5
:1025580005D1FB6840F2FF12A3F85C2015E0FB6888
:10256800FF22A3F85C2010E0FB689B68002B0CD1CD
:10257800FB681B69002B04D1FB68FF22A3F85C20D1
:1025880003E0FB687F22A3F85C20FB68B3F85C30AB
:102598007B833AE0FB68B3F85A309BB2013B9AB2AE
:1025A800FB68A3F85A203B680093FB6900222021AE
:1025B800F868FFF7B3FE0346002B01D0032335E08C
:1025C800FB689B68B3F5805F12D1FB681B69002B21
:1025D8000ED1BB687B61FB681B689B8C9AB27B8BB6
:1025E80013409AB27B691A80BB680233BB600CE067
:1025F800FB681B689B8C9BB2D9B27B8BDAB2BB6839
:10260800581CB8600A40D2B21A70FB68B3F85A3046
:102618009BB2002BBED1FB68202283F86A20FB689E
:10262800002283F86820002300E0022318462037A0
:10263800BD4680BD002103E00B4B5B58435004317D
:102648000A480B4B42189A42F6D30A4A02E0002382
:1026580013600432084B9A42F9D3AFF30080FDF7B8
:10266800D3FDFDF73BFFFEE7C4260008000000206D
:10267800C00E0020C00E0020540F0020FEE700000E
:10268800F8B500BFF8BC08BC9E467047F8B500BF57
:08269800F8BC08BC9E46704727
:1026A00048656C6C6F2066726F6D20746865206F72
:0C26B00074686572207369646521000085
:0426BC00F101000820
:0426C000C901000844
:1026C4001808141E0B0C0503071E091B160B101B00
:1026D4001A1E150A05021819101616171D000809E6
:1026E400090C161B0B111E0F191319180D041705CD
:1026F40006010C041F1B1A030719061F0E060A07FE
:102704001E111E1217140C1105090A0604030A00EF
:102714000C010C160705180F161A001514001507DE
:102724001C1615191C05000B1B050C19151B0E0096
:1027340007071802141604001F091D100D171E0B9D
:102744000C1E041D140D020C060E171B1C01071C85
:102754000D1B0B060115191B12100210150B111578
:10276400151000181E0C08051003150B15131F0E69
:1027740010190E0A1409020B101F12060B140C0A6E
:102784000D050A10040B1F0506151C0F021509146C
:102794001D051D0E1D0900140E1001011E1C050847
:1027A40018100B160F0F1F120F01050205050F1C41
:1027B40009061801041F1A1E181418151C12031BED
:1027C4000C0B130C1E081C181E03020B1D100C0905
:1027D400131C0916000B02130C1711101E090D050A
:1027E40007031B0F050F1600110511150D081A0913
:1027F4001810051F1D04060B09191D19031C1918AF
:10280400171A10110F0717101318170614060914B6
:1028140018080F0D131A191308150A17191109109E
:102824000D0D1C1D180E1011081F12070117160A92
:102834001F1C0E0A070D0203031C090503151C10B7
:102844000D091A010E07021B1A16000A161E04149B
:102854001E140F10050806091A001B0D091B0D1381
:102864001910050B011A0A100604150D09040F149A
:10287400001D01051A18100A0B1C150A0F05121465
:10288400160C1C170C0F0811161F0B1A10100A0730
:102894001000190B131F0809170E15030D1B071839
:1028A4001808051C0B1D1517041518030016130230
:1028B4000C1A01001A100F1F0A1D130A05001D1619
:1028C4000D190C191D16171A000B0E011F11091DE5
:1028D40000081B061201031B0A19060C0D11060E33
:1028E40003101F1B1003041C020F0F1C0F0F1A15DB
:1028F4001619101A161D1A08030F080C14171E00B7
:102904000A06110608160A031719100C0606171FE3
:10291400041C18011C0A1B15020213121B0E190EAB
:10292400031B15131302171E0A111F001416110A94
:10293400080E05121D0A130616191701040A0F12B0
:102944000B0C0F0E1F1B0F00140C120201110C1E96
:102954000F140F0C1D080E0D1C04030F0D0C1D1D70
:10296400181E0E160518060D0E171D150D15100848
:102974000103030C1D010A1F1518170A0D160E0773
:10298400171F1C1C0D061F071904180B150615121A
:1029940012061216020301031102180A021811008A
:1029A4001513151B1B060017080917000E101B0A28
:1029B400131C1D080C18011B0A19181012160713F2
:1029C4000F0F1603080A1F040D0B16040915081926
:1029D400090D11090F1D171B1406180C0B090812F9
:1029E4000119101F0A0614050019071E1B081702F7
:1029F400181F0F131F121403011E0E181F041B07A8
:102A04000B1E0A1E03050B071D131A06061E1502CC
:102A140010181D071115161E1812100913110A0D8E
:102A24000607060C0800011315041E0F01160C07F7
:102A34000507050E0C071005010315091101000710
:102A44000B11171F181B1C000005141514101B185C
:102A54001E1E1D040209100C1C0009181B1C021563
:102A6400190A0C090D171207010A1E1303180F0087
:102A74001C0704121F0A020B1A1C16040A06131B55
:102A8400021815070D1A1F1F12161601091B191A11
:102A940017071A0E0F101216171B1D1C13151715E6
:102AA4001109150D0106081803160D111102080D60
:102AB400190807180214070512071E01061F0A1237
:102AC40017021A001E0A170A100D100F00001C1816
:102AD4000C1E0A0B0117080D0D19190D08190D000C
:102AE4001F080A0F1906101A010E060F1901151FE7
:102AF4000A191C1A191904140D1D07180309060EC6
:102B0400021A09120101011512171E13100F0713DF
:102B14001F0A1910021F1C061A16110D05001808A9
:102B2400100D09011A1D161411030F0803061B19B1
:102B34000C181519191D190D15010D0200071B1B81
:102B4400160112081C12110C0510010A15121C0999
:102B5400101B100E1C0B0A001C04091F1519190761
:102B64000C1210070D13060D050F0C0914001507A0
:102B7400120216050613110C1C1D0D110413140D5D
:102B8400041607090D0E03100A0C17051F0A170B6C
:102B9400021610061B0F0F08160410081A12181933
:102BA400101A13020C09090F0106061B1E0912084C
:102BB4000C14001B181717170C1F1319131A1D0CCC
:102BC4001214130C06060B16021B1A000D1904042A
:102BD40009060E10050E071B1C050C0B0B1F0B0B17
:102BE4000A03121510121F090512161617071309E6
:102BF4000C0014171910020E080711111D09171DD6
:102C0400011B0C041F111401150C04060D141309E7
:102C140009021E0A0F121003170E15060005070DF0
:102C2400161A0B0F0515041D1F1E191B180B150F63
:102C3400091F1C190A1C1714040F011C030A010B99
:102C440012111408111B1C0F0712171110061F056F
:102C540016071C1510061E1C010B0D011103001D87
:102C64000C0F141C09101A0B1C180E160E17190C35
:102C740016191C181C181802011B15171906041A1A
:102C840000040109050917180A12180F110F1B1B5C
:102C94001B0A0D1A161C0214061116021615031C23
:102CA40007151D02030E0A010D0D1D01070E170B5A
:102CB400071B08060004060C0E0A1E13060D081B4B
:102CC400120E1A061A06151C160B050A041E1413F6
:102CD4000307000D010F011C11191914181904110F
:102CE400061A1E0606081B04141E071B0A09081BE5
:102CF4001D161A0419110D1315140D05111B1017A7
:102D040015070C040A0F0A1013151C08080D0501F9
:102D1400191900071703161B11031A0204151F12B1
:102D240018120A0B101C1504160812081913171888
:102D340002080C1D001D1A0C12000E17161712089B
:102D44000D0A171017091218150B1D1D0100160680
:102D5400161C17030F0708161E0E1603051E111165
:102D64001C0E000D110D16131B0D02120C09171366
:102D74000D1F0B12021A0A140E060C141A0702165F
:102D84001018011A001D0E1A02001F05170A131449
:102D94000F020111010E06010F03170F1F0903058E
:102DA400081A0A011F18181F0A19181E1C180E02E7
:102DB400101B080604001E12100615160E19081220
:102DC40014000800120D1D011812031C1C0C111311
:102DD4001306150707191205050A1C07121811070F
:102DE400050114190C1F1B1B1017150407121309D6
:102DF400010F1410161117040D090B0F1C0C1F0ED4
:102E04000E04050C18031C191F0D0B0614130E16C3
:102E14001807071E020D05141F061D130D07011FB9
:102E2400151108190E0D1A1001021E081F050E11A6
:102E3400010D1B0C0B1B000107060E150216180AC8
:102E44001806141609120E130718051A1818090083
:102E5400010604031D131501121E1B1E140A161D60
:102E64001F11161E0414040B1904021A0B061B1955
:102E7400171F120000131F1E1A1919071F0D110620
:102E84000D0908070B0B1C060702021F0316061F79
:102E940018021604061416001D0A070D111F171137
:102EA40003150B0D02171B160D180E1D15091D0910
:102EB400010F0C1E031401170A051C060E0A0E1539
:102EC4001A190305140D0B001E0018160715040A21
:102ED4000E0907011D03031E0D131B1A1D00101EEE
:102EE400120F05091214121F1002070B0B121D1FDB
:102EF4000B16080F1B1D1C121214131B0D080017B0
:102F0400120507110D0C0819160E010200110E040A
:102F140000061E1D0E1F13110A181C1A181009157D
:102F2400080F1B090C110E16171A100418040A01B5
:102F34000016010F1006071204071D07101C1805C0
:102F4400151112110A0B1B160D11141B1F1C130152
:102F5400061101101009011D141B0E18070E0A009A
:102F64000210141F151E1E171801011411120D1939
:102F74000A000F111C1C09100601060E18061D0C70
:102F84000315000917130B16171E12050717140251
:102F94000616030E0F01071E14170E1A1D17031130
:102FA4001F100901060C1B0013101A121E1B1C18FB
:102FB4001D19130A000004080408181507131B132D
:102FC40001121A1E14000A1507081A16151D1C0AE8
:102FD40015170703141F0C080A14101705180A1EE6
:102FE400080E0A090800130F121116030F06111D0B
:102FF4001E1C0B1F060A190E190D160A00070E15C2
:103004001804000A181004061F131115050A1118D4
:103014001911131A1B0715091B1C091B161F1F085E
:103024001C1314081D05110A180D131317050C178A
:103034000A021D13170B0D1B111C15051B16071A6D
:103044001B181016111701101D1B0818150D0D184B
:103054000803130E071710050719131C1C1B171D53
:103064001700010E0D0618070B1311001116191085
:1030740004171D0D051E1F1B021506010E0C11134E
:10308400110A120A1C110B191E131C00060D1A102A
:10309400061F0E1A0A150B0719161F1216030C1613
:1030A4000D08150D0500171D0408091C010E150E49
:1030B4001D1A10020E1B1F100F1B0F0815121A19D0
:1030C4001C13100619130A0A1B0B1715180E0E13DE
:1030D400130C1E0C04160F1A1612060D0909191AE0
:1030E4000F1C1B160A050F0C041D1A1E071D1808B9
:1030F40016111113101F18000A0B18001817100AC4
:10310400081E0D18180D1E120807111614080C0FAE
:10311400101002061C1C021D020B1E06021F150BBA
:103124000F101A17140810180A00180D1700010AB6
:10313400040C0C1C0D1C1A01060B010F041A0F12AF
:103144001401100116091C161E1007161A051E1666
:10315400041E0E1D0C190905050002150517021C95
:1031640015070A1F0A0914080E1A170C1A181D1A33
:103174001717090C1E140314091F0D0E0217091B3F
:1031840013051A0D1B0E050D08081C0D181A10182E
:103194000801041A0E031D01040D09091D01091774
:1031A4001E101B051C0F1E131D1D061C000B1604F0
:1031B4001A151C000D110C1E0613180D181C100BEB
:1031C4001417120D02060813151D0A181F191E06DE
:1031D4001B09160E00010E00180F1309171C1817EF
:1031E4000419050E071F17121A19040B1A141102D9
:1031F4000D011A0F020B171B0918051F170C161ABD
:10320400180F0B0B1C000A090A000003090E141006
:1032140007071A131000091F191C0A1E16080E1797
:103224001D0B0D16131D1A050C1D07191F1E16154F
:1032340017190012190B1D12160C110C07101C057E
:103244001C101D18121019050E0D08051E091D1F4E
:1032540002130609031D110F1809070000091815A8
:103264001F1E0C1E1A150A0914080D03141F13033C
:10327400011A0C1B040A1E02171E06011F080D0169
:103284000D0D081E1D141603100017150807120C47
:10329400150E051C061D1E16190E031A11130E0316
:1032A400160C130906110B03070A1A1D191C160E16
:1032B400051619071105050D010A0B18031A1F1429
:1032C400180A0E0F18190918021F0C000E10141CEE
:1032D4001C0D1F030B1E09160902161A0F111B09D8
:1032E4000C121E1C0D010708150015011019150FED
:1032F4000C09011C01160B15040C06011E1A1919E0
:10330400170D090D16051E0B101F040F08151F1CA1
:103314000E1B120B1C02100619110711191D0F03A5
:1033240007000D020D141F03080A0818071A0110DC
:10333400160F12000206191F0111140907061406BC
:103344001A0D0011180F1A0B0E131A121C02010D7C
:103354001103011F19031D0A16070B0E19140F1E62
:103364001C18090C1A040F1A0B06130C170312125B
:103374000A0A1B09081B0A06180D0417110C1B194D
:10338400140F0F0A0B131E1F1D17191F17111C15DD
:10339400070A19140603130B1311090B090E0F0F57
:1033A4000F10150C1C110B0A15160E0D190F091C04
:1033B400031E14111E170A141704101F1B0F121CCE
:1033C4001911020F1910131D1902041B011D1F1CD2
:1033D4001E0D18140F0E080F0D0707141E180319DD
:1033E40013110105080E0C0C1418070F12141B1EE0
:1033F400120D07080916150E1E1A070A17160D1DB9
:10340400151F1F09121809191F1705130C15041A83
:103414001403080A1B061B0908041706000005020A
:1034240004100C1E1A100D001B0D0D0B020F0D0EB7
:10343400070B111B191D10021015100A18190E156F
:103444000409150F0403131806090A051506180DB7
:103454001804120D07091B0B0A0D030B0B0E141392
:103464000A1D01001C1D071A0A1A09060F03181069
:103474000001100205110D061A1B0C0B001F0F088A
:103484000F07000E040705041D08130B13091C1D68
:103494001F0F1402070604050419150B1F0F02154C
:1034A4001D1C0D1A041A100D151E09031D0D1204FE
:1034B4000617151008061507070B051D09071C1D1F
:1034C40007140C1B0B0D1613101F071B0400020519
:1034D40007021517161C05021F0A070B0F190D17F3
:1034E4000D1616111E150505160304011F1E1301E2
:1034F4000D1E010D1F1E0509000E1E0F141F0B01CA
:1035040013121E050D1D1F120819111A011C031C8C
:103514001A100A1E0F1B18070F05080D1510061B9D
:10352400181C0414181F0F1B1A151510150E140857
:10353400131515190C1B08000C1A0D0419070B148C
:103544001E02060C0717130B1F1F1F1F1F1F00004F
:103554000000000000000000000000000000000067
:103564000000000000000000000000000000000057
:103574000000000000000000000000000000000047
:040000050800263D8C
:00000001FF
