:020000040800F2
:1000000000A00020E53200082D3300082D33000841
:100010002D3300082D3300082D33000800000000A8
:100020000000000000000000000000002D33000868
:100030002D330008000000002D3300082D33000888
:1000400000000000000000000000000000000000B0
:1000500000000000000000000000000000000000A0
:100060000000000000000000000000000000000090
:100070000000000000000000000000000000000080
:100080000000000000000000000000000000000070
:100090000000000000000000000000000000000060
:1000A0000000000000000000000000000000000050
:1000B0000000000000000000000000000000000040
:1000C0000000000000000000000000000000000030
:1000D0000000000000000000000000000000000020
:1000E0000000000000000000000000000000000010
:1000F0000000000000000000000000000000000000
:1001000000000000000000000000000000000000EF
:1001100000000000000000000000000000000000DF
:1001200000000000000000000000000000000000CF
:1001300000000000000000000000000000000000BF
:1001400000000000000000000000000000000000AF
:10015000000000000000000000000000000000009F
:10016000000000000000000000000000000000008F
:10017000000000000000000000000000000000007F
:08018000000000000000000077
:100188000348044B834202D0034B03B1184770471E
:10019800943D0020943D00200000000005480649D9
:1001A8000B1AD90F01EBA301491002D0034B03B17D
:1001B80018477047943D0020943D0020000000003F
:1001C80010B5064C237843B9FFF7DAFF044B13B197
:1001D8000448AFF300800123237010BD943D002034
:1001E800000000003033000808B5044B1BB1044977
:1001F8000448AFF30080BDE80840CFE700000000E6
:10020800983D00203033000870B50D4E0D4D761B1B
:10021800B61006D0002455F8043B01349847A6428E
:10022800F9D1094E094D761B03F07EF8B61006D0B9
:10023800002455F8043B01349847A642F9D170BD13
:100248006433000864330008683300086433000826
:10025800844641EA000313F003036DD1403A41D3C9
:1002680051F8043B40F8043B51F8043B40F8043B88
:1002780051F8043B40F8043B51F8043B40F8043B78
:1002880051F8043B40F8043B51F8043B40F8043B68
:1002980051F8043B40F8043B51F8043B40F8043B58
:1002A80051F8043B40F8043B51F8043B40F8043B48
:1002B80051F8043B40F8043B51F8043B40F8043B38
:1002C80051F8043B40F8043B51F8043B40F8043B28
:1002D80051F8043B40F8043B51F8043B40F8043B18
:1002E800403ABDD2303211D351F8043B40F8043BB8
:1002F80051F8043B40F8043B51F8043B40F8043BF8
:1003080051F8043B40F8043B103AEDD20C3205D3C7
:1003180051F8043B40F8043B043AF9D2043208D0BF
:10032800D2071CBF11F8013B00F8013B01D30B8831
:1003380003806046704700BF082A13D38B078DD00F
:1003480010F003038AD0C3F10403D21ADB071CBFE1
:1003580011F8013B00F8013B80D331F8023B20F84B
:10036800023B7BE7043AD9D3013A11F8013B00F884
:10037800013BF9D20B7803704B7843708B7883700C
:1003880060467047830730B548D0541E002A3FD0D6
:10039800CAB2034601E0013C3AD303F8012B9D079A
:1003A800F9D1032C2DD9CDB245EA05250F2C45EA04
:1003B800054536D9A4F1100222F00F0C03F1200EE6
:1003C800E6444FEA121C03F1100242E9045542E9DF
:1003D800025510327245F8D10CF1010214F00C0FDD
:1003E80003EB021204F00F0C13D0ACF1040323F05A
:1003F80003030433134442F8045B9342FBD10CF02B
:1004080003042CB1CAB21C4403F8012B9C42FBD153
:1004180030BD64461346002CF4D1F9E70346144670
:10042800BFE71A46A446E0E780B584B000AF78601D
:1004380039600023FB6009E0FB687A6813441B7885
:10044800184600F0C5FFFB680133FB60FB683A689B
:100458009A42F1D800BF00BF1037BD4680BD0000EA
:1004680080B487B000AFF860B9607A6000237B6120
:100478001CE07B69FA6813441B7819467B69BA68E3
:1004880013441B78CA180E4B83FB0213134419112B
:10049800D317C91A0B465B015B1AD11A7B697A68B4
:1004A8001344CAB21A707B6901337B617B691D2BC7
:1004B800DFDD00BF00BF1C37BD4680BC704700BFF2
:1004C8004308218480B485B000AF78603960002388
:1004D800FB6018E0FB687A6813441B78C3F11F02BD
:1004E8000E4B83FB021313441911D317C91A0B4679
:1004F8005B015B1AD11AFB687A681344CAB21A7096
:10050800FB680133FB60FA683B689A42E2DB00BF94
:1005180000BF1437BD4680BC704700BF4308218424
:1005280080B5A6B000AFF860B9607A603B6007F1AB
:100538001003782200211846FFF724FF0023C7F88C
:1005480094305AE0444B1B68012B12D1D7F89430F1
:10055800002B0ED1412387F8933004E000F01AFFF6
:10056800034687F8933097F89330672BF6D100F05D
:10057800FBFE0023C7F88C3029E0D7F88C309B00AD
:1005880098333B4453F8881CD7F8942013461B0132
:100598009B1A5B001A46D7F88C3013441A46FB683E
:1005A80013441B781846D7F89430BA6813441B785C
:1005B80000FB03F3CA18D7F88C309B0098333B44F0
:1005C80043F8882CD7F88C300133C7F88C30D7F82B
:1005D8008C301D2BD1DD204B1B68012B08D1D7F89F
:1005E8009430002B04D100F0CAFE722000F0F0FE17
:1005F800D7F894300133C7F89430D7F894207B6843
:100608009A429FDB0023C7F888301CE0D7F888306F
:100618009B0098333B4453F8882C104BA3FB0213E0
:10062800D11A49080B4419090B465B015B1AD11A08
:10063800D7F888303A681344CAB21A70D7F88830A5
:100648000133C7F88830D7F888301D2BDEDD00BFAE
:1006580000BF9837BD4680BDB03D002085104208D8
:1006680080B5ADF5A75D00AF07F59C63A3F2D44351
:10067800186007F59C63A3F59B63196007F59C63F5
:10068800A3F2DC431A6007F5A753A3F65C23002204
:100698001A60043340F62E2200211846FFF772FE36
:1006A800002307F5A65202F11C021360002307F588
:1006B800A65202F118021360A8E0002307F5A6521B
:1006C80002F1140213607CE007F5A65303F114034A
:1006D8001B68002B02D1D34B01221A6007F5A653E1
:1006E80003F11C031A6813461B019B1A5B001A4688
:1006F80007F59C63A3F59B631B68981807F5A65339
:1007080003F114031A681346DB009B1A9B001A4472
:1007180007F5A65303F118031B6813441A4607F597
:100728009C63A3F2D4431B68991807F5A65303F1F9
:1007380018031B68C3F11D0207F14003103BFFF7C4
:10074800EFFE07F5A65303F118031A6813465B007A
:100758001A4407F5A65303F114031B681A441346F9
:100768001B019B1A5B001A4607F68423981807F5A5
:10077800A65303F118031A6813465B001A4407F5D9
:10078800A65303F114031B681A4413461B019B1A52
:100798005B001A4607F684231A4407F14003103B0E
:1007A8001946FFF75DFE9F4B00221A6007F5A65316
:1007B80003F114031B68013307F5A65202F1140272
:1007C800136007F5A65303F114031B68022B7FF788
:1007D8007BAF07F5A65303F118031B68C3F11D038C
:1007E80007F5A65202F11C021268134407F5A65237
:1007F80002F11C02136007F5A65303F118031B68E6
:10080800013307F5A65202F11802136007F5A65343
:1008180003F118031B681C2B7FF74FAF002307F564
:10082800A65202F1100213606DE0002307F5A652EC
:1008380002F10C02136054E007F5A65303F110030C
:100848001A6813465B001A4407F5A65303F10C0314
:100858001B681A4413461B019B1A5B001A4607F6CD
:100868008423981807F5A65303F11C031A68134646
:100878001B019B1A5B001A4607F59C63A3F59B6353
:100888001B68991807F5A65303F110031A68134655
:100898005B001A4407F5A65303F10C031B681A44BE
:1008A80013461B019B1A5B001A4607F68423134460
:1008B8001A46FFF7D5FD07F5A65303F11C031B687D
:1008C800013307F5A65202F11C02136007F5A6537F
:1008D80003F10C031B68013307F5A65202F10C0261
:1008E800136007F5A65303F10C031B68022BA3DD65
:1008F80007F5A65303F110031B68013307F5A65249
:1009080002F11002136007F5A65303F110031B68E8
:100918001C2B8ADD07F59C63A3F5926300221A60FD
:10092800043340F62E2200211846FFF72BFD002342
:1009380007F5A65202F10802136056E0002307F5F6
:10094800A65202F1040213603DE007F5A65303F135
:1009580008031A681346DB009B1A9B001A4407F524
:10096800A65303F104031B681A4413461B019B1A80
:100978005B001A4607F16003103B981807F5A65369
:1009880003F104031A6813465B001A4407F5A653DB
:1009980003F108031B681A4413461B019B1A5B00EA
:1009A8001A4607F6842313441E221946FFF750FC03
:1009B80007F5A65303F104031B68013307F5A65294
:1009C80002F10402136007F5A65303F104031B6840
:1009D8001C2BBADD07F5A65303F108031B68013386
:1009E80007F5A65202F10802136007F5A65303F1B2
:1009F80008031B68022BA1DD002307F5A65213602C
:100A0800002307F5A55202F11C021360C3E007F5A5
:100A1800A55303F11C031B6807F5A55202F1180240
:100A28001360A5E0B03D002007F5A55303F11803B6
:100A38001B6840F2663202FB03F31A4607F16003B3
:100A4800103B981807F5A55303F11C031A681346C1
:100A5800DB009B1A9B0013441A4607F59C63A3F21C
:100A6800D4431B68991807F5A6531A6813461B0147
:100A78009B1A5B001A4607F59C63A3F2DC431B68CC
:100A880013441D22FFF74CFD07F5A55303F1180386
:100A98001A6807F5A55303F11C031B689A4255D041
:100AA80007F59C63A3F59A6300221A6004330022B9
:100AB8001A605A609A60DA601A615A611A8307F5F7
:100AC800A55303F11C031B6840F2663202FB03F3D3
:100AD8001A4607F16003103B981807F5A55303F170
:100AE80018031A681346DB009B1A9B0013441A4626
:100AF80007F59C63A3F2D4431B68991807F12003F8
:100B0800103B1D22FFF70CFD07F5A6531A68134684
:100B18001B019B1A5B001A4607F59C63A3F2DC4392
:100B28001B68981807F5A6531A6813461B019B1AE9
:100B38005B001A4607F59C63A3F2DC431B681A4462
:100B480007F12003103B1946FFF78AFC07F5A65367
:100B58001B68013307F5A652136007F5A55303F187
:100B680018031B68013307F5A55202F11802136038
:100B780007F5A55303F118031B68022B7FF754AF41
:100B880007F5A55303F11C031B68013307F5A552AC
:100B980002F11C02136007F5A55303F11C031B683F
:100BA800022B7FF734AF07F59C63A3F2DC43B42133
:100BB8001868FFF787FC00BF07F5A757BD4680BD3B
:100BC80080B5ADF6683D00AF0023C7F8483B07F68F
:100BD8004C3300221A605A609A60DA601A615A61CE
:100BE8001A8307F66833A3F6542300221A600433E5
:100BF80040F62E2200211846FFF7C4FB07F668339B
:100C0800A3F6643300221A6004334FF4857200217E
:100C18001846FFF7B7FB3B1D1A4606490648FFF77B
:100C28001FFD652000F0D4FB0123184607F668373E
:100C3800BD4680BD000000202C3D0020B0B588B026
:100C480000AF00F0C3FA00F013FB00F061FB0C4B9F
:100C58003C1D1D460FCD0FC495E8070003C4228034
:100C68000234130C23703B1D1A211846FFF7DCFBD6
:100C780000F024F9FFF7A4FF00F090F9FCE700BFAB
:100C88004833000880B483B000AF78600B46FB702F
:100C9800012318460C37BD4680BC704780B584B028
:100CA80000AF78600B46FB70074B1B68DBB2FB7329
:100CB80007F10F031A460121722000F051FA0023B0
:100CC80018461037BD4680BDB43D002080B590B0B1
:100CD80000AF78600B46FB70002387F83F3037E0A1
:100CE80097F83F3097F83F2026491B010B441978A5
:100CF80013465B00134440333B44343B0A461A70A6
:100D080097F83F301F4A1B01134404331B6897F8B8
:100D18003F20D9B213465B00134440333B44333B76
:100D28000A461A7097F83F3097F83F2015491B017B
:100D38000B440C33197813465B00134440333B448F
:100D4800323B0A461A7097F83F30013387F83F3034
:100D580097F83F200C4B1B68DBB29A42C0DB0A4B6A
:100D68001B68DBB21A4652001344DBB207F10C02CF
:100D78001946722000F0F4F9002318464037BD46A2
:100D880080BD00BFB83D0020B43D002080B487B0CE
:100D980000AFF860B9607A6000237B6183E07B690B
:100DA8005B001A46BB6813441B78FB747B695B00C5
:100DB8000133BA6813441B78BB74BB7C2F2B0AD948
:100DC800BB7C392B07D87B697A681344BA7C303AE4
:100DD800D2B21A701DE0BB7C402B0AD9BB7C462BD3
:100DE80007D87B697A681344BA7C373AD2B21A704A
:100DF8000FE0BB7C602B0AD9BB7C662B07D87B69CC
:100E08007A681344BA7C573AD2B21A7001E00123C7
:100E18004FE0FB7C2F2B13D9FB7C392B10D87B6937
:100E28007A6813441B785AB2FB7C303B1B015BB2D7
:100E3800134359B27B697A681344CAB21A702FE017
:100E4800FB7C402B13D9FB7C462B10D87B697A6836
:100E580013441B785AB2FB7C373B1B015BB213432C
:100E680059B27B697A681344CAB21A7018E0FB7CDD
:100E7800602B13D9FB7C662B10D87B697A681344E6
:100E88001B785AB2FB7C573B1B015BB2134359B228
:100E98007B697A681344CAB21A7001E0012308E03A
:100EA8007B6901337B617A69FB689A42FFF677AF09
:100EB800002318461C37BD4680BC704780B500AF7C
:100EC800084A0021762000F013F8074A002177200D
:100ED80000F00EF8054A0021792000F009F800BF5B
:100EE80080BD00BF8D0C0008D50C0008A50C0008BB
:100EF80080B584B000AF0346B9607A60FB73F87BB5
:100F080000237A68B96800F005F8034618461037D8
:100F1800BD4680BD80B485B000AFB9607A601A461E
:100F28000346FB731346BB731A4B1B680F2B01DD7B
:100F3800012329E0BB68FF2B01D9012324E0154BCD
:100F48001B68154A1B011344FA7B1A70114B1B6866
:100F5800114A1B0113440433BA681A600D4B1B680D
:100F68000D4A1B01134408337A681A60094B1B6841
:100F7800094A1B0113440C33BA7B1A70054B1B68D2
:100F88000133044A1360002318461437BD4680BC59
:100F9800704700BFB43D0020B83D002080B5ADF5D6
:100FA800467D00AF00F0F6F9034687F80F330023BB
:100FB800C7F814330EE0684AD7F814331B011344FA
:100FC8001B7897F80F239A420BD0D7F814330133C4
:100FD800C7F81433614B1B68D7F814239A42EADB2D
:100FE80000E000BF5D4B1B68D7F814239A4200F05D
:100FF800A680594AD7F814331B0113440C331B78C5
:1010080003F00103002B2DD007F54673A3F211332B
:1010180000221A7000F0BEF903461A4607F5467317
:10102800A3F545731A7000F0B5F903461A4607F59B
:101038004673A3F545735A70FA1D3B1D19460120E6
:10104800FFF7A4FE0346002B7BD107F54673A3F2F6
:1010580011331B781946404AD7F814331B0113443F
:10106800043319600023C7F810331BE000F092F92D
:10107800034687F80F3397F80F330A2B63D097F896
:101088000F330D2B5FD007F54673A3F50372D7F81E
:101098001033134497F80F231A70D7F8103301331D
:1010A800C7F810332C4AD7F814331B011344043300
:1010B8001B685A00D7F810339A42D7D800F06AF95B
:1010C800034687F80F3397F80F330A2B03D097F8A6
:1010D8000F330D2B39D1204AD7F814331B01134491
:1010E80004331B68184607F10C0207F58673194686
:1010F800FFF74CFE0346002B29D1174AD7F81433C3
:101108001B01134408331B681349D7F81423120131
:101118000A4404321268D1B207F10C02104698470B
:1011280003461A4607F54673A3F544731A7007F188
:1011380008031A4601217A2000F012F808E000BFDF
:1011480006E000BF04E000BF02E000BF00E000BF0F
:1011580007F54677BD4680BDB83D0020B43D002068
:1011680080B584B000AF03463A60FB710B46BB7193
:10117800FB79184600F02CF90023FB6019E0FB68A6
:101188003A6813441B781B09DBB21A460E4B9B5C6A
:10119800184600F01DF9FB683A6813441B7803F001
:1011A8000F03094AD35C184600F012F9FB680133B3
:1011B800FB60BB79FA689A42E1DB0A2000F008F983
:1011C80000BF1037BD4680BD843D002080B596B075
:1011D80000AF0323FB624FF4A0233B630023FB63B0
:1011E8000023FB6407F12C03184600F025F90F23B0
:1011F800BB610123FB6100233B6200237B62002368
:10120800BB6200237B6507F11803796D184601F06E
:1012180029F9154B5B69144A43F400235361124BB7
:101228005B6903F400233B603B684FF4C0437B6079
:101238000123BB600023FB6003233B613B1D194670
:101248000A4801F099FA01224FF40051074801F0C9
:1012580011FC01224FF48041044801F00BFC00BF4F
:101268005837BD4680BD00BF001002400008004846
:1012780080B588B000AF4FF4C063FB6002233B61C8
:1012880001237B610323BB610723FB611D4B5B6962
:101298001C4A43F4003353611A4B5B6903F400336F
:1012A800BB60BB6807F10C0319464FF0904001F092
:1012B80063FA154B154A1A60134B4FF416425A60DD
:1012C800114B00229A60104B0022DA600E4B00226C
:1012D8001A610D4B00229A610B4B0C225A61094B83
:1012E8009B69084A43F480439361064B9B6903F466
:1012F80080437B607B68044801F01DFE00BF2037F7
:10130800BD4680BD00100240B83E002000380140B4
:1013180080B586B000AF134B5B69124A43F40033C3
:101328005361104B5B6903F400333B603B684FF437
:1013380080537B600123BB600023FB6003233B6178
:101348003B1D19464FF0904001F016FA00224FF469
:1013580080514FF0904001F08DFB00BF1837BD461B
:1013680080BD00BF0010024080B500AF01224FF4DD
:1013780080514FF0904001F07DFB00BF80BD80B5EB
:1013880000AF00224FF480514FF0904001F072FB03
:1013980000BF80BD80B582B000AF05E00A4B1B6A74
:1013A800094A43F008031362F91D41F28833012208
:1013B800064801F0DEFE0346002BEFD1FB79184604
:1013C8000837BD4680BD00BF00380140B83E002048
:1013D80080B584B000AF0346FB71FB79FB7307F15E
:1013E8000F0141F288330122034801F035FE00BFA6
:1013F8001037BD4680BD00BFB83E002080B400AFA6
:10140800044B1B685A1C03490A601846BD4680BC39
:10141800704700BF283F002080B400AF4FF4E103BD
:101428001846BD4680BC704780B400AF4FF4E10356
:101438001846BD4680BC704780B5ADF5007D00AF4D
:1014480007F50073A3F5FE7318600023C7F8F83199
:1014580007F50073A3F5FE731B681B6803F001030F
:10146800002B00F08081BE4B5B6803F00C03042B5B
:101478000CD0BB4B5B6803F00C03082B5DD1B84B59
:101488005B6803F48033B3F5803F56D14FF40033E3
:10149800C7F8F431D7F8F43193FAA3F3C7F8F03169
:1014A800D7F8F031B3FA83F3DBB25B09DBB243F070
:1014B8000103DBB2012B02D1A94B1B6815E04FF4E5
:1014C8000033C7F8EC31D7F8EC3193FAA3F3C7F837
:1014D800E8314FF40033C7F8E431D7F8E43193FA30
:1014E800A3F3C7F8E0319E4B5B6A4FF40032C7F8AC
:1014F800DC21D7F8DC2192FAA2F2C7F8D821D7F874
:10150800D821B2FA82F252B242F0200252B2D2B2DA
:1015180002F01F02012101FA02F21340002B00F031
:10152800218107F50073A3F5FE731B685B68002B28
:1015380040F01881012300F08CBF07F50073A3F574
:10154800FE731B685B68B3F5803F06D1844B1B684C
:10155800834A43F48033136036E007F50073A3F53C
:10156800FE731B685B68002B0CD17D4B1B687C4AA3
:1015780023F4803313607A4B1B68794A23F4802361
:10158800136021E007F50073A3F5FE731B685B6821
:10159800B3F5A02F0CD1724B1B68714A43F480231A
:1015A80013606F4B1B686E4A43F4803313600BE083
:1015B8006B4B1B686A4A23F480331360684B1B68C3
:1015C800674A23F480231360654BDB6A23F00F021C
:1015D80007F50073A3F5FE731B689B686049134306
:1015E800CB6207F50073A3F5FE731B685B68002BDD
:1015F8005AD0FFF703FFC7F8F8010AE0FFF7FEFE2D
:101608000246D7F8F831D31A642B02D9032300F025
:1016180020BF4FF40033C7F8D431D7F8D43193FA48
:10162800A3F3C7F8D031D7F8D031B3FA83F3DBB2DC
:101638005B09DBB243F00103DBB2012B02D1484B5B
:101648001B6815E04FF40033C7F8CC31D7F8CC311C
:1016580093FAA3F3C7F8C8314FF40033C7F8C4317D
:10166800D7F8C43193FAA3F3C7F8C0313C4B5B6A8F
:101678004FF40032C7F8BC21D7F8BC2192FAA2F285
:10168800C7F8B821D7F8B821B2FA82F252B242F0BC
:10169800200252B2D2B202F01F02012101FA02F274
:1016A8001340002BAAD05EE0FFF7A8FEC7F8F801A8
:1016B8000AE0FFF7A3FE0246D7F8F831D31A642BE5
:1016C80002D9032300F0C5BE4FF40033C7F8B43184
:1016D800D7F8B43193FAA3F3C7F8B031D7F8B031DB
:1016E800B3FA83F3DBB25B09DBB243F00103DBB28D
:1016F800012B02D11A4B1B6815E04FF40033C7F8D1
:10170800AC31D7F8AC3193FAA3F3C7F8A8314FF44A
:101718000033C7F8A431D7F8A43193FAA3F3C7F874
:10172800A0310F4B5B6A4FF40032C7F89C21D7F801
:101738009C2192FAA2F2C7F89821D7F89821B2FA18
:1017480082F252B242F0200252B2D2B202F01F022A
:10175800012101FA02F21340002BAAD103E000BFD5
:101768000010024000BF07F50073A3F5FE731B6865
:101778001B6803F00203002B00F07E81A64B5B6818
:1017880003F00C03002B0BD0A34B5B6803F00C0396
:10179800082B73D1A04B5B6803F48033002B6DD109
:1017A8000223C7F89431D7F8943193FAA3F3C7F812
:1017B8009031D7F89031B3FA83F3DBB25B09DBB22F
:1017C80043F00103DBB2012B02D1934B1B6813E0FA
:1017D8000223C7F88C31D7F88C3193FAA3F3C7F8F2
:1017E80088310223C7F88431D7F8843193FAA3F3F8
:1017F800C7F88031884B5B6A0222C7F87C21D7F88A
:101808007C2192FAA2F2C7F87821D7F87821B2FAA7
:1018180082F252B242F0200252B2D2B202F01F0259
:10182800012101FA02F21340002B0AD007F50073D8
:10183800A3F5FE731B681B69012B02D0012300F07E
:1018480008BE754B1B6823F0F80207F50073A3F573
:10185800FE731B685969F823C7F87431D7F87431D7
:1018680093FAA3F3C7F87031D7F87031B3FA83F35A
:1018780001FA03F3684913430B60FDE007F50073B1
:10188800A3F5FE731B681B69002B00F088800123F9
:10189800C7F86C31D7F86C3193FAA3F3C7F86831FD
:1018A800D7F86831B3FA83F303F1845303F584134B
:1018B8009B001A4601231360FFF7A0FDC7F8F80143
:1018C8000AE0FFF79BFD0246D7F8F831D31A022B3E
:1018D80002D9032300F0BDBD0223C7F86431D7F84D
:1018E800643193FAA3F3C7F86031D7F86031B3FADB
:1018F80083F3DBB25B09DBB243F00103DBB2012BFC
:1019080002D1454B1B6813E00223C7F85C31D7F8B6
:101918005C3193FAA3F3C7F858310223C7F854315E
:10192800D7F8543193FAA3F3C7F850313A4B5B6AAE
:101938000222C7F84C21D7F84C2192FAA2F2C7F834
:101948004821D7F84821B2FA82F252B242F0200276
:1019580052B2D2B202F01F02012101FA02F2134080
:10196800002BAED02C4B1B6823F0F80207F5007350
:10197800A3F5FE731B685969F823C7F84431D7F8F3
:10198800443193FAA3F3C7F84031D7F84031B3FA9A
:1019980083F301FA03F3204913430B606CE001233E
:1019A800C7F83C31D7F83C3193FAA3F3C7F838317C
:1019B800D7F83831B3FA83F303F1845303F584136A
:1019C8009B001A4600231360FFF718FDC7F8F801BB
:1019D8000AE0FFF713FD0246D7F8F831D31A022BB5
:1019E80002D9032300F035BD0223C7F83431D7F8F4
:1019F800343193FAA3F3C7F83031D7F83031B3FA5A
:101A080083F3DBB25B09DBB243F00103DBB2012BEA
:101A180004D1014B1B6815E0001002400223C7F8EF
:101A28002C31D7F82C3193FAA3F3C7F828310223C5
:101A3800C7F82431D7F8243193FAA3F3C7F8203133
:101A4800C54B5B6A0222C7F81C21D7F81C2192FA01
:101A5800A2F2C7F81821D7F81821B2FA82F252B2C6
:101A680042F0200252B2D2B202F01F02012101FA62
:101A780002F21340002BACD107F50073A3F5FE73F7
:101A88001B681B6803F00803002B00F00A8107F5A8
:101A98000073A3F5FE731B689B69002B73D00123A9
:101AA800C7F81431D7F8143193FAA3F3C7F81031F3
:101AB800D7F81031B3FA83F31A46A84B13449B00A6
:101AC8001A4601231360FFF799FCC7F8F8010AE0EA
:101AD800FFF794FC0246D7F8F831D31A022B02D943
:101AE800032300F0B6BC0223C7F80C31D7F80C3139
:101AF80093FAA3F3C7F808310223C7F80431D7F8DB
:101B0800043193FAA3F207F50073A3F580731A6002
:101B180007F50073A3F5827302221A6007F50073B4
:101B2800A3F582731B6893FAA3F207F50073A3F574
:101B380084731A60884B5A6A07F50073A3F5867395
:101B48000221196007F50073A3F586731B6893FAE1
:101B5800A3F107F50073A3F58873196007F50073FF
:101B6800A3F588731B68B3FA83F35BB243F0600391
:101B78005BB2DBB203F01F03012101FA03F3134048
:101B8800002BA5D08DE007F50073A3F58A73012219
:101B98001A6007F50073A3F58A731B6893FAA3F21A
:101BA80007F50073A3F58C731A6007F50073A3F5A6
:101BB8008C731B68B3FA83F31A46684B13449B0073
:101BC8001A4600231360FFF719FCC7F8F8010AE06A
:101BD800FFF714FC0246D7F8F831D31A022B02D9C2
:101BE800032300F036BC07F50073A3F58E730222B9
:101BF8001A6007F50073A3F58E731B6893FAA3F2B6
:101C080007F50073A3F590731A6007F50073A3F541
:101C1800927302221A6007F50073A3F592731B688A
:101C280093FAA3F207F50073A3F594731A6007F506
:101C38000073A3F5967302221A6007F50073A3F5E3
:101C480096731B6893FAA3F207F50073A3F59873CC
:101C58001A60414B5A6A07F50073A3F59A7302217B
:101C6800196007F50073A3F59A731B6893FAA3F13B
:101C780007F50073A3F59C73196007F50073A3F5C6
:101C88009C731B68B3FA83F35BB243F060035BB2E7
:101C9800DBB203F01F03012101FA03F31340002B09
:101CA80096D107F50073A3F5FE731B681B6803F054
:101CB8000403002B00F0A481002387F8FF31264B92
:101CC800DB6903F08053002B16D1234BDB69224AD2
:101CD80043F08053D361204BDB6903F0805207F552
:101CE8000073A3F5FA731A6007F50073A3F5FA7386
:101CF8001B68012387F8FF31194B1B6803F48073B5
:101D0800002B1AD1164B1B68154A43F480731360D5
:101D1800FFF774FBC7F8F80109E0FFF76FFB02460D
:101D2800D7F8F831D31A642B01D9032391E30C4B6C
:101D38001B6803F48073002BEFD007F50073A3F53D
:101D4800FE731B68DB68012B0CD1034B1B6A024A2C
:101D580043F0010313623BE0001002402081901021
:101D68000070004007F50073A3F5FE731B68DB687D
:101D7800002B0CD17F4B1B6A7E4A23F001031362B0
:101D88007C4B1B6A7B4A23F00403136220E007F5AF
:101D98000073A3F5FE731B68DB68052B0CD1754B2C
:101DA8001B6A744A43F004031362724B1B6A714A3C
:101DB80043F0010313620BE06E4B1B6A6D4A23F07C
:101DC800010313626B4B1B6A6A4A23F00403136214
:101DD80007F50073A3F5FE731B68DB68002B00F0A2
:101DE8008280FFF70BFBC7F8F8010BE0FFF706FB53
:101DF8000246D7F8F831D31A41F28832934201D912
:101E0800032326E307F50073A3F59E7302221A60E5
:101E180007F50073A3F59E731B6893FAA3F207F501
:101E28000073A3F5A0731A6007F50073A3F5A273F6
:101E380002221A6007F50073A3F5A2731B6893FAD0
:101E4800A3F207F50073A3F5A4731A6007F50073EE
:101E5800A3F5A4731B68B3FA83F3DBB25B09DBB2A7
:101E680043F00203DBB2022B02D1424B1B6A13E0A0
:101E780007F50073A3F5A67302221A6007F500732D
:101E8800A3F5A6731B6893FAA3F207F50073A3F5ED
:101E9800A8731A60374B5B6A07F50072A2F5AA723D
:101EA8000221116007F50072A2F5AA72126892FA6F
:101EB800A2F107F50072A2F5AC72116007F5007285
:101EC800A2F5AC721268B2FA82F252B242F0400243
:101ED80052B2D2B202F01F02012101FA02F21340FB
:101EE800002B83D082E0FFF789FAC7F8F8010BE0EE
:101EF800FFF784FA0246D7F8F831D31A41F288324C
:101F0800934201D90323A4E207F50073A3F5AE7346
:101F180002221A6007F50073A3F5AE731B6893FAE3
:101F2800A3F207F50073A3F5B0731A6007F5007301
:101F3800A3F5B27302221A6007F50073A3F5B27312
:101F48001B6893FAA3F207F50073A3F5B4731A603C
:101F580007F50073A3F5B4731B68B3FA83F3DBB218
:101F68005B09DBB243F00203DBB2022B04D1014B65
:101F78001B6A15E00010024007F50073A3F5B6735D
:101F880002221A6007F50073A3F5B6731B6893FA6B
:101F9800A3F207F50073A3F5B8731A60AD4B5B6A3B
:101FA80007F50072A2F5BA720221116007F50072F6
:101FB800A2F5BA72126892FAA2F107F50072A2F5B8
:101FC800BC72116007F50072A2F5BC721268B2FA11
:101FD80082F252B242F0400252B2D2B202F01F0272
:101FE800012101FA02F21340002B81D197F8FF3149
:101FF800012B05D1974BDB69964A23F08053D361B7
:1020080007F50073A3F5FE731B68DB69002B00F06E
:102018001F82904B5B6803F00C03082B00F01682BC
:1020280007F50073A3F5FE731B68DB69022B40F00C
:10203800668107F50073A3F5BE734FF080721A60CE
:1020480007F50073A3F5BE731B6893FAA3F207F5AF
:102058000073A3F5C0731A6007F50073A3F5C07386
:102068001B68B3FA83F303F1845303F584139B00CD
:102078001A4600231360FFF7C1F9C7F8F8010AE010
:10208800FFF7BCF90246D7F8F831D31A724A9342DF
:1020980001D90323DDE107F50073A3F5C2734FF0FF
:1020A80000721A6007F50073A3F5C2731B6893FAF0
:1020B800A3F207F50073A3F5C4731A6007F500735C
:1020C800A3F5C4731B68B3FA83F3DBB25B09DBB215
:1020D80043F00103DBB2012B02D15E4B1B6827E002
:1020E80007F50073A3F5C6734FF000721A6007F581
:1020F8000073A3F5C6731B6893FAA3F207F5007380
:10210800A3F5C8731A6007F50073A3F5CA734FF0F7
:1021180000721A6007F50073A3F5CA731B6893FA77
:10212800A3F207F50073A3F5CC731A60494B5B6AF9
:1021380007F50072A2F5CE724FF00071116007F535
:102148000072A2F5CE72126892FAA2F107F5007237
:10215800A2F5D072116007F50072A2F5D07212686C
:10216800B2FA82F252B242F0200252B2D2B202F075
:102178001F02012101FA02F21340002B80D1354BD6
:102188005B6823F4741207F50073A3F5FE731B68EC
:10219800596A07F50073A3F5FE731B681B6A0B43A6
:1021A8002C4913434B6007F50073A3F5D2734FF026
:1021B80080721A6007F50073A3F5D2731B6893FA4F
:1021C800A3F207F50073A3F5D4731A6007F500733B
:1021D800A3F5D4731B68B3FA83F303F1845303F5AF
:1021E80084139B001A4601231360FFF707F9C7F809
:1021F800F8010AE0FFF702F90246D7F8F831D31AD6
:10220800154A934201D9032323E107F50073A3F587
:10221800D6734FF000721A6007F50073A3F5D673F2
:102228001B6893FAA3F207F50073A3F5D8731A6035
:1022380007F50073A3F5D8731B68B3FA83F3DBB211
:102248005B09DBB243F00103DBB2012B06D1014B82
:102258001B682BE000100240400D030007F50073D7
:10226800A3F5DA734FF000721A6007F50073A3F54F
:10227800DA731B6893FAA3F207F50073A3F5DC730E
:102288001A6007F50073A3F5DE734FF000721A6049
:1022980007F50073A3F5DE731B6893FAA3F207F53D
:1022A8000073A3F5E0731A606C4B5B6A07F5007264
:1022B800A2F5E2724FF00071116007F50072A2F505
:1022C800E272126892FAA2F107F50072A2F5E472BE
:1022D800116007F50072A2F5E4721268B2FA82F290
:1022E80052B242F0200252B2D2B202F01F020121D1
:1022F80001FA02F21340002B3FF47CAFA8E007F587
:102308000073A3F5E6734FF080721A6007F5007347
:10231800A3F5E6731B6893FAA3F207F50073A3F518
:10232800E8731A6007F50073A3F5E8731B68B3FA3E
:1023380083F303F1845303F584139B001A460023A7
:102348001360FFF75BF8C7F8F8010AE0FFF756F8E3
:102358000246D7F8F831D31A414A934201D90323E8
:1023680077E007F50073A3F5EA734FF000721A607F
:1023780007F50073A3F5EA731B6893FAA3F207F550
:102388000073A3F5EC731A6007F50073A3F5EC73FB
:102398001B68B3FA83F3DBB25B09DBB243F00103DA
:1023A800DBB2012B02D12D4B1B6827E007F5007328
:1023B800A3F5EE734FF000721A6007F50073A3F5EA
:1023C800EE731B6893FAA3F207F50073A3F5F07395
:1023D8001A6007F50073A3F5F2734FF000721A60E4
:1023E80007F50073A3F5F2731B6893FAA3F207F5D8
:1023F8000073A3F5F4731A60184B5B6A07F5007253
:10240800A2F5F6724FF00071116007F50072A2F59F
:10241800F672126892FAA2F107F50072A2F5F87244
:10242800116007F50072A2F5F8721268B2FA82F22A
:1024380052B242F0200252B2D2B202F01F0201217F
:1024480001FA02F21340002B80D101E0012300E0E1
:102458000023184607F50077BD4680BD00100240EE
:10246800400D030080B59CB000AF78603960002350
:10247800FB66984B1B6803F007033A689A4210D929
:10248800944B1B6823F0070292493B6813430B6087
:10249800904B1B6803F007033A689A4201D0012366
:1024A8005AE17B681B6803F00203002B08D08A4BB3
:1024B8005B6823F0F0027B689B68874913434B6095
:1024C8007B681B6803F00103002B00F00D817B681B
:1024D8005B68012B3DD14FF40033BB66BB6E93FAAA
:1024E800A3F37B667B6EB3FA83F3DBB25B09DBB2E3
:1024F80043F00103DBB2012B02D1774B1B680FE0DD
:102508004FF400333B663B6E93FAA3F3FB654FF43D
:102518000033BB65BB6D93FAA3F37B656E4B5B6AB7
:102528004FF400323A653A6D92FAA2F2FA64FA6C04
:10253800B2FA82F252B242F0200252B2D2B202F0A1
:102548001F02012101FA02F21340002B7DD1012361
:1025580002E17B685B68022B3DD14FF00073BB64DE
:10256800BB6C93FAA3F37B647B6CB3FA83F3DBB2A3
:102578005B09DBB243F00103DBB2012B02D1564BFE
:102588001B680FE04FF000733B643B6C93FAA3F3B6
:10259800FB634FF00073BB63BB6B93FAA3F37B63DE
:1025A8004D4B5B6A4FF000723A633A6B92FAA2F2B3
:1025B800FA62FA6AB2FA82F252B242F0200252B2D7
:1025C800D2B202F01F02012101FA02F21340002BDD
:1025D8003BD10123C0E00223BB62BB6A93FAA3F399
:1025E8007B627B6AB3FA83F3DBB25B09DBB243F04D
:1025F8000103DBB2012B02D1374B1B680DE002232C
:102608003B623B6A93FAA3F3FB610223BB61BB699C
:1026180093FAA3F37B61304B5B6A02223A613A6911
:1026280092FAA2F2FA60FA68B2FA82F252B242F070
:10263800200252B2D2B202F01F02012101FA02F2C4
:102648001340002B01D1012386E0234B5B6823F064
:1026580003027B685B68204913434B60FEF7CEFE9C
:10266800F8667B685B68012B12D10AE0FEF7C6FEAC
:102678000246FB6ED31A41F28832934201D90323F2
:102688006AE0154B5B6803F00C03042BEED12BE0DA
:102698007B685B68022B21D10AE0FEF7AFFE024699
:1026A800FB6ED31A41F28832934201D9032353E0D7
:1026B800094B5B6803F00C03082BEED114E0FEF71E
:1026C8009DFE0246FB6ED31A41F28832934205D929
:1026D800032341E00020024000100240204B5B68C9
:1026E80003F00C03002BEAD11E4B1B6803F0070311
:1026F8003A689A4210D21B4B1B6823F0070219490B
:102708003B6813430B60174B1B6803F007033A68D9
:102718009A4201D001231FE07B681B6803F0040381
:10272800002B08D00E4B5B6823F4E0627B68DB6803
:102738000B4913434B607B681B6803F00803002BAD
:1027480009D0074B5B6823F460527B681B69DB0088
:10275800034913434B60002318467037BD4680BDBC
:10276800001002400020024080B400AF4FF4E103A3
:102778001846BD4680BC704780B487B000AF78600B
:10278800396000237B610023FB6000233B6154E137
:102798003B681A6801217B6901FA03F31340FB6067
:1027A800FB68002B00F046813B685B68022B03D076
:1027B8003B685B68122B23D17B69DA087B68083297
:1027C80053F822303B617B6903F007039B000F221B
:1027D80002FA03F3DB433A6913403B613B681A6929
:1027E8007B6903F007039B0002FA03F33A6913437A
:1027F8003B617B69DA087B680832396943F8221043
:102808007B681B683B617B695B00032202FA03F368
:10281800DB433A6913403B613B685B6803F00302A2
:102828007B695B0002FA03F33A6913433B617B68F7
:102838003A691A603B685B68012B0BD03B685B68A0
:10284800022B07D03B685B68112B03D03B685B68A1
:10285800122B30D17B689B683B617B695B0003224C
:1028680002FA03F3DB433A6913403B613B68DA68D9
:102878007B695B0002FA03F33A6913433B617B68A7
:102888003A699A607B685B683B6101227B6902FA5E
:1028980003F3DB433A6913403B613B685B681B0900
:1028A80003F001027B6902FA03F33A6913433B61BF
:1028B8007B683A695A607B68DB683B617B695B00CF
:1028C800032202FA03F3DB433A6913403B613B6896
:1028D8009A687B695B0002FA03F33A6913433B6128
:1028E8007B683A69DA603B685B6803F08053002BC9
:1028F80000F0A080584B9B69574A43F0010393614D
:10290800554B9B6903F00103BB60BB68534A7B6965
:102918009B08023352F823303B617B6903F00303C1
:102928009B000F2202FA03F3DB433A6913403B6131
:102938007B68B3F1904F19D07B68494A934213D012
:102948007B68484A93420DD07B68474A934207D038
:102958007B68464A934201D1042308E0052306E038
:10296800032304E0022302E0012300E000237A6944
:1029780002F00302920093403A6913433B613749DE
:102988007B699B0802333A6941F82320384B1B685E
:102998003B61FB68DB433A6913403B613B685B681A
:1029A80003F48033002B03D03A69FB6813433B617F
:1029B8002F4A3B6913602E4B5B683B61FB68DB4326
:1029C8003A6913403B613B685B6803F40033002BB2
:1029D80003D03A69FB6813433B61254A3B6953605E
:1029E800234B9B683B61FB68DB433A6913403B61BF
:1029F8003B685B6803F48013002B03D03A69FB68DB
:102A080013433B611A4A3B699360194BDB683B618E
:102A1800FB68DB433A6913403B613B685B6803F43E
:102A28000013002B03D03A69FB6813433B61104A3B
:102A38003B69D3607B6901337B613B681A687B69BA
:102A480022FA03F3002B7FF4A3AE00BF00BF1C37AC
:102A5800BD4680BC704700BF001002400000014026
:102A68000004004800080048000C00480010004816
:102A78000004014080B483B000AF78600B467B80CF
:102A880013467B707B78002B03D07A887B689A6129
:102A980002E07A887B689A6200BF0C37BD4680BC2A
:102AA8007047000080B586B000AF78600023FB60F7
:102AB8001023FB7500237B810023BB820023FB745A
:102AC8007B689A687B681B691A437B685B691A4351
:102AD8007B68DB691343FB607B681B681B6823F416
:102AE800164323F00C037A681268F9680B431360E5
:102AF8007B681B685B6823F440517B68DA687B68F5
:102B08001B680A435A607B689A697B681B6A13438F
:102B1800FB607B681B689B6823F430617B681B68DB
:102B2800FA680A439A607B681B68A14A934220D1DD
:102B3800A04B1B6B03F00303032B17D801A252F819
:102B480023F000BF5D2B0008692B00086F2B0008DD
:102B5800632B00080123FB75B5E00223FB75B2E087
:102B68000423FB75AFE00823FB75ACE01023FB756D
:102B7800A9E07B681B68904A934224D18D4B1B6B5C
:102B880003F44033B3F5403F11D0B3F5403F17D8B5
:102B9800B3F5003F11D0B3F5003F11D8002B03D097
:102BA800B3F5803F06D00BE00023FB758BE00223D2
:102BB800FB7588E00423FB7585E00823FB7582E03C
:102BC8001023FB757FE07B681B687C4A934224D105
:102BD800784B1B6B03F44023B3F5402F11D0B3F5AA
:102BE800402F17D8B3F5002F11D0B3F5002F11D807
:102BF800002B03D0B3F5802F06D00BE00023FB7524
:102C080061E00223FB755EE00423FB755BE00823AB
:102C1800FB7558E01023FB7555E07B681B68684A14
:102C2800934224D1634B1B6B03F44013B3F5401F4D
:102C380011D0B3F5401F17D8B3F5001F11D0B3F565
:102C4800001F11D8002B03D0B3F5801F06D00BE06E
:102C58000023FB7537E00223FB7534E00423FB7582
:102C680031E00823FB752EE01023FB752BE07B6811
:102C78001B68544A934224D14E4B1B6B03F4400308
:102C8800B3F5400F11D0B3F5400F17D8B3F5000FC7
:102C980011D0B3F5000F11D8002B03D0B3F5800F76
:102CA80006D00BE00023FB750DE00223FB750AE05C
:102CB8000423FB7507E00823FB7504E01023FB756C
:102CC80001E01023FB757B68DB69B3F5004F7BD10E
:102CD800FB7D082B56D801A252F823F0092D0008D5
:102CE800252D0008412D00088D2D00085B2D0008BA
:102CF8008D2D00088D2D00088D2D0008772D0008DA
:102D0800FEF792FB03465A007B685B685B081A442F
:102D18007B685B68B2FBF3F3BB8236E0FFF724FD08
:102D280003465A007B685B685B081A447B685B68EB
:102D3800B2FBF3F3BB8228E07B685B685B0803F1B6
:102D4800F47303F590437A685268B3FBF2F3BB82DD
:102D58001BE0FEF761FB03465A007B685B685B0873
:102D68001A447B685B68B2FBF3F3BB820DE07B68B7
:102D78005B685B0803F580327B685B68B2FBF3F342
:102D8800BB8202E00123FB7400BFBB8A23F00F0360
:102D98007B81BB8A5B109BB203F007039AB27B89E5
:102DA80013437B817B681B687A89DA6075E000BF12
:102DB8000038014000100240004400400048004034
:102DC800004C004000500040FB7D082B62D801A257
:102DD80052F823F0012E0008212E0008412E000889
:102DE8009D2E0008612E00089D2E00089D2E0008CB
:102DF8009D2E0008812E0008FEF716FB02467B6810
:102E08005B685B081A447B685B68B2FBF3F39AB2B1
:102E18007B681B68DA6040E0FFF7A6FC02467B6827
:102E28005B685B081A447B685B68B2FBF3F39AB291
:102E38007B681B68DA6030E07B685B685B0803F5D9
:102E4800740303F510537A685268B3FBF2F39AB22D
:102E58007B681B68DA6020E0FEF7DEFA02467B68D2
:102E68005B685B081A447B685B68B2FBF3F39AB251
:102E78007B681B68DA6010E07B685B685B0803F5B9
:102E880000427B685B68B2FBF3F39AB27B681B680D
:102E9800DA6002E00123FB7400BFFB7C1846183798
:102EA800BD4680BD80B586B002AF78600023FB6068
:102EB8007B680022DA66FEF7A1FAF8607B681B6877
:102EC8001B6803F00803082B0ED16FF07E430093B4
:102ED800FB6800224FF40011786800F073F803468D
:102EE800002B01D0032322E07B681B681B6803F0DA
:102EF8000403042B0ED16FF07E430093FB6800227D
:102F08004FF48001786800F05DF80346002B01D08B
:102F180003230CE07B68202283F869207B68202249
:102F280083F86A207B68002283F86820002318460B
:102F38001037BD4680BD80B582B000AF78607B6831
:102F4800002B01D1012339E07B6893F86930DBB2AB
:102F5800002B03D17B68002283F868207B68242239
:102F680083F869207B681B681A687B681B6822F0F5
:102F780001021A607868FFF795FD0346012B01D11D
:102F880001231BE07B681B685A687B681B6822F476
:102F980090425A607B681B689A687B681B6822F0BD
:102FA8002A029A607B681B681A687B681B6842F073
:102FB80001021A607868FFF775FF0346184608375C
:102FC800BD4680BD80B584B000AFF860B9603B6095
:102FD8001346FB712CE0BB69B3F1FF3F28D0BB69F6
:102FE800002B07D0FEF70AFA02463B68D31ABA69E3
:102FF8009A421DD2FB681B681A68FB681B6822F49A
:10300800D0721A60FB681B689A68FB681B6822F01C
:1030180001029A60FB68202283F86920FB6820225D
:1030280083F86A20FB68002283F8682003230FE0F6
:10303800FB681B68DA69BB681340BA689A420CBF20
:1030480001230023DBB21A46FB799A42C3D000233E
:1030580018461037BD4680BD80B588B002AFF8600D
:10306800B9603B601346FB8000237B61FB6893F8E3
:103078006930DBB2202B77D1BB68002B02D0FB88EC
:10308800002B01D1012370E0FB6893F86830012B15
:1030980001D1022369E0FB68012283F86820FB68FC
:1030A8000022DA66FB68212283F86920FEF7A6F978
:1030B8007861FB68FA88A3F85020FB68FA88A3F8BF
:1030C800522034E0FB68B3F852309BB2013B9AB20D
:1030D800FB68A3F852203B6800937B69002280219B
:1030E800F868FFF76FFF0346002B01D003233CE08D
:1030F800FB689B68B3F5805F11D1FB681B69002BE7
:103108000DD1BB683B613B691A88FB681B68C2F339
:10311800080292B21A85BB680233BB6007E0BB683D
:103128005A1CBA601A78FB681B6892B21A85FB6849
:10313800B3F852309BB2002BC4D13B6800937B6933
:1031480000224021F868FFF73DFF0346002B01D01D
:1031580003230AE0FB68202283F86920FB68002229
:1031680083F86820002300E0022318461837BD467C
:1031780080BD80B58AB002AFF860B9603B60134685
:10318800FB800023FB61FB6893F86A30DBB2202BDD
:1031980040F09F80BB68002B02D0FB88002B01D138
:1031A800012397E0FB6893F86830012B01D10223D3
:1031B80090E0FB68012283F86820FB681B684FF0E9
:1031C800FF321A62FB680022DA66FB68222283F863
:1031D8006A20FEF713F9F861FB68FA88A3F858200B
:1031E800FB68FA88A3F85A20FB689B68B3F5805FF0
:1031F8000ED1FB681B69002B05D1FB6840F2FF125A
:10320800A3F85C2015E0FB68FF22A3F85C2010E01F
:10321800FB689B68002B0CD1FB681B69002B04D151
:10322800FB68FF22A3F85C2003E0FB687F22A3F879
:103238005C20FB68B3F85C307B833AE0FB68B3F84A
:103248005A309BB2013B9AB2FB68A3F85A203B68FC
:103258000093FB6900222021F868FFF7B3FE0346BC
:10326800002B01D0032335E0FB689B68B3F5805F32
:1032780012D1FB681B69002B0ED1BB687B61FB6810
:103288001B689B8C9AB27B8B13409AB27B691A801D
:10329800BB680233BB600CE0FB681B689B8C9BB26D
:1032A800D9B27B8BDAB2BB68581CB8600A40D2B27C
:1032B8001A70FB68B3F85A309BB2002BBED1FB687A
:1032C800202283F86A20FB68002283F86820002304
:1032D80000E0022318462037BD4680BD002103E0E8
:1032E8000B4B5B58435004310A480B4B42189A4227
:1032F800F6D30A4A02E0002313600432084B9A42CC
:10330800F9D3AFF30080FCF77FFFFDF797FCFEE7EA
:103318006C33000800000020943D0020943D0020FC
:10332800303F0020FEE70000F8B500BFF8BC08BC3D
:103338009E467047F8B500BFF8BC08BC9E4670476B
:1033480048656C6C6F2066726F6D20746865206FBD
:0C335800746865722073696465210000D0
:04336400F10100086B
:04336800C90100088F
:10336C001010061C04191704050711040B100B048C
:10337C00171E140F181F090D0700191A150119062D
:10338C00161B02151718110E0211020812121E1527
:10339C0007011C081800180202090D160A1E11005C
:1033AC000E05081E120B070B130514130108081D3C
:1033BC000A01111B051E0E1C1D17050F03171316F2
:1033CC001B0A0103130A131F1205180B011F0C18FB
:1033DC001317020B0D0608161A18051F12131606E2
:1033EC00000A050C08000B111E01031E1D18091202
:1033FC00150C121A1613030912051A080F081F1AB6
:10340C001D161511141F000F021504070A1A1119A5
:10341C001C0B170615030E1C071600111613091AA0
:10342C001C11100C0B00160F0D0C0D0B08141313A4
:10343C001C071E130214021104180C08001F1E177F
:10344C001610170D1D100C0909061D13181D0B0461
:10345C001D111E061F081912120C0E02091A180053
:10346C000417081C171B1E0814091F150704110F3D
:10347C0018110C0E0C091D0B0E140C1A150F171D20
:10348C0010161D051D1C1D1A02120A1F1D01180401
:10349C0017070C1E080316131C151D191C0015000C
:1034AC00121C031404011D110B1F0B001F07101914
:1034BC001413060A000004031E10020F0614111B3D
:1034CC001D1C0A1A08001C0D081E1A181114021CC7
:1034DC001508000A0A0004151D1D0F1516161602F4
:1034EC00051B1C070318091E11101E1B02110D09C8
:1034FC001710190F110005041B14021E02151E1EB5
:10350C000D1C0F191C1601061108140804131F02B8
:10351C000E0C170F190E0F100F1E010B06021502C1
:10352C001E10100C0C180B131D111704021B031585
:10353C001C181F151909101E0F17090D091C161739
:10354C000D020B0D15060A1B0C0017010912050BB9
:10355C00071E0D150F0D17020F1F091B1412070C58
:10356C00021016190319170B10120B1E04101B1244
:10357C00060912100E001D000417121B0315090F6B
:10358C000D040C13121909010302041E0B1C0A165C
:10359C000113031F1D13121F1C001E07070A01072E
:1035AC001E0A130A191604080212091714150A0622
:1035BC000C05140A031600041B0802070D1900164B
:1035CC000E0112141F1107030B090D1C1A0E061FF6
:1035DC0007100B1409070905111F1F16140E1712DB
:1035EC001912131B19031F14001517080C000002E5
:1035FC0016181705010A09120A1A02120900171CDB
:10360C000308120813111D1C0C0E0C1D10010D1EAD
:10361C000B1014161C13001413021400041B1603B5
:10362C0007050A0F0B031013110D101409020002E9
:10363C001805011203180F15190D0D140C09191684
:10364C000E09031C1116091D0C18040D121E17046B
:10365C000203150C1311181D05110F080D1F071867
:10366C0003000016111711171F1C1E01181A131333
:10367C0015181B120C1B1D1712171810150B000A0E
:10368C00170A1A0E1C1C0E14051C091D0209060132
:10369C000D1E090913130C18061F1C1502000E171A
:1036AC001105191B09181314181B031504191C10E8
:1036BC001F061A1B1E05020700080615080E1E041D
:1036CC0014090C0F0619151B0300081A150713060D
:1036DC001D070A15171407190D010F0B140B1605EE
:1036EC000B1F1813051F0A0718001E140A12190ABB
:1036FC001B04140319140219060D110B0C0E1E0DCC
:10370C00151712160B030C071D1D1F1F19030002A2
:10371C001A19170F19151E120B06091616030D0B85
:10372C000C131A0E140C010319031A131B180F1780
:10373C000607131519080E1D190700191F100A1E6C
:10374C00001B06001E1102141F111D12051E191953
:10375C00000D091C1C131609090A1C12061307126A
:10376C000111110211140900180809020E1D040997
:10377C0003081F171D0F1E04111F111210031D0625
:10378C00160B1D0B1D110B1D03031C130D11170E16
:10379C000801151F161F13070C1308040004181C2E
:1037AC001A101A10001A111F010F0B1F071A080903
:1037BC0004030A0405161C0219081E05010F061540
:1037CC0010161B05130F0A0B180613031213010D09
:1037DC001F0F1B0B1D181E130D1A0E0604161108B5
:1037EC000B0D091F001C0714181602000F1E0D0CE0
:1037FC000115161A070B1C140E050F191D1F0B0EA5
:10380C000C0F0E12001B1E101F1C01180F13121789
:10381C0004031D110F1D111C1305100107080408CA
:10382C0004040A1400080E1D0717031A0D0A1D12B2
:10383C0014081C0B0D0D13131C1C181301091F0469
:10384C000F1E011C1C1F101F00100C121E160A024A
:10385C001008180F16071D110D001E161C11181339
:10386C00021E0F13141B1B030009100B050F111C58
:10387C000F151017000D1B0B071C120B071302035F
:10388C0017191B0C101A1A1C0B0F120D13091919EE
:10389C00000B010E03160E150F191E01021208194A
:1038AC00041804110802051B141B17090B1210062F
:1038BC001C1603191C0A0F1B1004051E1C051107EE
:1038CC001F0E0F080B00121F0B0A0E001917090D03
:1038DC00141916171F0C0111010A100C13111718CB
:1038EC0008181512140003190C0D13050B1C0701F5
:1038FC001C0D0C101C05060E12160F1205171716B0
:10390C0013101C061D0E10001901090E12160A0FB9
:10391C00171D1105141B120F1B0E081C0E040A0A8E
:10392C0014051D050F19001D091C06030A11180E9C
:10393C001E0B0709040919101B1B091E1C1012066B
:10394C001D1D1009140406120218090A1A16040186
:10395C001B061C0E120E05190016020C191E001463
:10396C001F1619161D1E1116171D1A0A09100E0CFA
:10397C001910181201190216071600001015081656
:10398C000C0A1600110108101A1C01160B0A130E52
:10399C000213081B1F080F051B0B06091B1A0C1E14
:1039AC00131B031410190D120E16050C09110A190C
:1039BC0012020A0D020B0D1903130B0D011218182C
:1039CC001A0801091E13030C171905020119080F17
:1039DC00120111000E1905061C1E08191607080AFB
:1039EC001B13100F090015130E1A1E1C1D0812189C
:1039FC00190614090A021815100A161900021F14C8
:103A0C0018040606080D0D19011C030015091914DC
:103A1C001B131C061F060B0D070F1D040B16030BA7
:103A2C001405141701150A1E151A1E1A041C0A1D5A
:103A3C00060E1D01101714071D011F0108010012AD
:103A4C000B1A03051E09090E090A161E04171E037C
:103A5C001D1101181D08190211131504080B0A1168
:103A6C00160A1C1C08180A000A011B1D1F0F16063B
:103A7C001613160A041C001211131C06170E1E181E
:103A8C000400130A13101A110E180D081D1F121F13
:103A9C0012081017131F07161E1F070B16151E0CE6
:103AAC0009161E051108000A10010114020001027A
:103ABC001F000F0E17111E011B1F08100D0B1008F5
:103ACC000A0811051D1906061C090F0902050A1D15
:103ADC001B1E1519041F071C1717110514051501BA
:103AEC00151904160D0F0B0E16001C07190C0413D8
:103AFC00050E1D0A1F0C07111F10030C1A1E0109BD
:103B0C00100D1A1801020604151E021417071E0ABE
:103B1C000E10061E161E040F1B03061D1D040A079D
:103B2C0014131203160A06091C1216180612191D74
:103B3C0013080D030C1C1A0A070114040C001E06B2
:103B4C00180E0B15171E0B09090019021B0A00048D
:103B5C00141311150A130E161307041C1109190955
:103B6C000516090B12130C1D1510150805101A015A
:103B7C00021006190C1B1A1F1B19161D0F1B0D0BFF
:103B8C00090802061410171A07111A1E0D0D031539
:103B9C000B0B15140D1A02071B1A1801111914021C
:103BAC001D041F1B051A0015120A0F131808150FF8
:103BBC000706161701030B07030A0D0108061F1051
:103BCC00070901061B07060A150D02120F05071E31
:103BDC00140B0A1F1D1801051B0716000D031709EE
:103BEC0000131B0D0B170C1A1018010B061F1D07C9
:103BFC001B0B0202080F1C021415020C1E09151EC9
:103C0C001D0D13060E140A14010C1D1D0E09190EA0
:103C1C000C18110B0A03011D0A060D170F031417BC
:103C2C000D1E131900190E0F1306020F17030701AF
:103C3C000D0A03091701171E021211081B0E15128B
:103C4C001A1F171404051C07060E0A1D1A1E020A59
:103C5C00100814181D1013151F1D081816000C1B26
:103C6C001D1A1E0D14090900110B141F190E051F26
:103C7C000D0A1C0E0A1A12131D121A160508161F0D
:103C8C000C040D001C08011900111905010704167C
:103C9C000D1F10031E1F050B08181C161B1B0C16E2
:103CAC00061603051906020D1F070B08121219162A
:103CBC000706101D0510011C0F1F1D1C17160718D9
:103CCC0016141B0A00080B151A081D1613121509D9
:103CDC000805021D040118110910050A001001162F
:103CEC000B150D1B1818151B070B010A080D1601D7
:103CFC001C0B0A070519050F1F170D1600100A09D2
:103D0C000C1E061A14151B09110C011710060212B1
:103D1C00180F150003091D021C0B110310030F1EB5
:103D2C0018140819070302041C0E011701161B1A9C
:103D3C000C07051C1E0A1018130D18081802050C88
:103D4C001B1311021F130718020410181B01120574
:103D5C001C07110C00040C1202031C101C19001877
:103D6C000F04141111150F1F13080C0816180E113F
:103D7C00181807151F1D030F1E1A19170F02000A1A
:103D8C00171912161A1A06071F0D131115190C08FC
:103D9C00040A1C181E1B1A060E080F0601110E1F12
:103DAC000D1911191C09050A06011E1D18041216FD
:103DBC00011E1007170500150A0F1C0D141F1A04FD
:103DCC00060E1C19130B1A0C001D1D10160D1600D7
:103DDC00000F031F1C060A1219010F0E0A01031D06
:103DEC00100D1B0B141809030200020F1F120A09F5
:103DFC00120E1211150D1500040E0D050B0B011FE3
:103E0C0002181C11181F06181B1E040705081A1C83
:103E1C000B13130B080A1E14150C1C0F11191B1273
:103E2C00121D06110A1B1F0B0209041D01190500A6
:103E3C00000C0819131E00071E0C030B0F051C04A5
:103E4C001210071E1705111F0F0C1E0D0B081E114B
:103E5C00130D1F1C15141D031915100C1A09130032
:103E6C00141E01061905140805141A17171E030849
:103E7C001B1F110718011711030E0C0E001B041346
:103E8C00021F0D031D1104130E170A02140B11103F
:103E9C0011161000130E1D0E1803090C030D0F093B
:103EAC000C0B051207060705111A100709061E0947
:103EBC00081E0B1E1E01111E0C09131511000414F3
:103ECC000C0D1A001406051E151E0D1A1A081810D2
:103EDC00191B1B1E151118110011011B070B1610B5
:103EEC0007041C050201010A04100B1612030C0F27
:103EFC00150B030E12080E031500000D1205050D0F
:103F0C00051B1207160B1D1919061B001615191E79
:103F1C001A00051202050F0B0A171816040C1019BB
:103F2C0017160B1C1105021E1B0010140F081A1774
:103F3C000319040E030407170918071C031D0205B7
:103F4C00161D15171D1D15061E01120310141A1827
:103F5C001B0508110B0E0C0506001E0D0D1E0C1C6E
:103F6C00001E0F060E0E0B1F0D04061F16051B144C
:103F7C00010008190D071C07071F0F120B1714045B
:103F8C001C13150618041218120F0A1A191A1F04FA
:103F9C000A07030205101E1100021D091416161B38
:103FAC000113010B1410190A181E0D021406180E19
:103FBC00141D09120701081608070D0C1704061327
:103FCC0012070F1A1806040408131916141E0704F6
:103FDC000F140D0B0E1915130E0A1B0806130B1DCF
:103FEC000D1D04020E131418041D0C1616171805BB
:103FFC00190C0B0909040A1C11170E00061D0513D8
:10400C0000011111091E02090309121212080D06F2
:10401C00151D17001D11041D1E17110E041B08067B
:10402C001C010007160017121C190B0E131A07059A
:10403C00050B070B161F08060F1905021C1F101C79
:10404C00190F0416131F081A031B0D090E02111C5D
:10405C000C15071112151517001F03101218150255
:10406C001A0C181613100707111B0B08090B1B0C45
:10407C00000D1B19031B0C011A1C1D1210101E0F16
:10408C001F131404000E091B1A1F0C0C170E0F071C
:10409C0016001104180308111B1100051E150C0F36
:1040AC001117071E0C05090A170E120611020D1323
:1040BC001F0F020007130411120F111D0F16120A05
:1040CC001010021F0B17181F1D130014121C0519BA
:1040DC000B0706150F16101F05190D0213160E02ED
:1040EC00110404111000090E031E040B161B1815E5
:1040FC001A1D03060D0E1601030E1306140F021FD4
:10410C00041D1E060A1B18180F110E151D101D1765
:10411C000C0D140C071B101215181600180A0B06A0
:10412C00061019120D1E1D0B010A1B00001C1E0C83
:10413C0013030A001A0E090C100F1D0601060F0CB2
:10414C0000191E0516131E0F080901131A101F184B
:10415C000014031C140817000A07100A0C14060795
:10416C000F021316121D15170E01081A15180D1F24
:10417C0018181D1F081E1D161D1D01130911020202
:10418C000A0A08171B03151A060E190E1F0F011B1E
:10419C00171216050116030F171416010D1F0F0623
:1041AC00151C0E14001513020B18130C100E161FF1
:1041BC0004001C191A0E04081002130D100C000632
:1041CC0000171A1904050F1915091908150B130BEB
:1041DC0006191D1C15160D0E1710190D070E0113BF
:1041EC000613131F1619181E171811150E0B0B108A
:1041FC00060F0B1115121D1B080F1E1B11011900A8
:10420C000A1A01120C1E1812051D180F09040608B3
:10421C00081C1511120E190019090F120A1A06188A
:10422C00041E0F0D1F171106011114001D1B000D8C
:10423C00130C101505001509081A0507140C020CAF
:10424C001C171F000C141A16131C0B12130B18102E
:10425C00110506130A011A130F081719141B150957
:10426C0010110C10121C1B15101217091F1800111D
:10427C001E1A1D140F0F1413020B0318160D0B111D
:10428C0018080B13070013000316071A050D00106E
:10429C0009000E15091F0617181B1F14120D161DE9
:1042AC00091400040015090C0718131D0E041E1523
:1042BC00121A141908081C01061112010F131C17ED
:1042CC001B1D14101E11100A0D120B0109180618D3
:1042DC0016031315131B120A15041B1F161A091E9D
:1042EC001D11030000161A03001C1405130F0A15E8
:1042FC00020F111D031A17101108171A17110B159D
:10430C00100A0203020D04031304080D1005081F04
:10431C000B181305140A180E060319050C0D1E199B
:10432C001F090C040800140F081A17020207170DB6
:10433C0018091513020C0B18190304030F1B06158F
:10434C000B0B04171F1E05161D1B08111A1507034E
:10435C001C010A05141308020A01100A01121108A3
:10436C001E1113170A1D05131C0C0C150A0C0D1825
:10437C001D16160700160C171F1205190518081222
:10438C001209140F1F1903140418180211060D0B2F
:10439C001F130302160B181210110D03060C181420
:1043AC000B170E140E0701060B160516010C13182D
:1043BC000812021E0E10101F151600001A021713F9
:1043CC0018120C071D080C1E0B02071F0A031C04F5
:1043DC00051C1C051E1A1D1808121F170D1B08039F
:1043EC001D1F0B191414081F06171112151A041B84
:1043FC0017130B1D00180D170F100D121C040511AF
:10440C00011E0B0E0A0F131C131517191702101B84
:10441C000B091A070513130613161F1818100F1281
:10442C001E020900051C0A070E1D100D130B191690
:10443C00121F1819160F180B1002180E0B130E1A48
:10444C00021012050D120D0B051B0B16000D0C0F97
:10445C0018011D0C0706170C050D0B190D03021482
:10446C001C160A1C1501061206000A0F0210091C64
:10447C000217190D0A020D190D150807040A0D1063
:10448C00110E100112031E0A12130E19000B08193B
:10449C001B141D0D021C031A0C100C0E001514031A
:1044AC00001F16171F1C130D0A0706061C1F1D07DD
:1044BC001D120D00091D1C0B1F18190E1C1F0F09B6
:1044CC0008160609151D151F1400031919191908CA
:1044DC001C091A0E100C0012141B1D10021E1E06B5
:1044EC00190A1508070B13090C01181F1F1C1416A9
:1044FC00070E0A0F070E0B1414140A09081E1D0DC3
:10450C0009081A1B1F1C0E001C0A060F18080D1692
:10451C001E1B001D000712180A1D011F0E1E1E0C6B
:10452C001915121B01120719151B031D0F1305106A
:10453C00021A0A081F0013191B030701050D1D039E
:10454C0013181B0A1103111B0F071F101C0A011053
:10455C001F1719150A0C110417160107040A010E6E
:10456C001019141A0A1A1E01050018120B0C140348
:10457C00140202030606010710010F0C14111D1D75
:10458C001B04170E100C1811091D151208161D0707
:10459C000117110A08110F080E040E0E0D111A1432
:1045AC000A1A0A140C1C14061F0C0F030D001E1DF6
:1045BC00041F0D1E180B0B16071B1E0F040F091DD5
:1045CC0005031C0B041A0A191E1E13010E051118E3
:1045DC00021C17101F1F151D0F0F10100C1B080F9E
:1045EC0003061B12040F011903160F101415190ED4
:1045FC000511061617031D1406161B02081B1004C2
:10460C00120A1318110E0711001D15020605031FBF
:10461C001C1C11011908030D13101A160B1C050292
:10462C0001101902050B1D0B1D04041E1B011A059C
:10463C00070C1013081C030410120F130818071B87
:10464C00140901110C0F1703141A1C1C001B17085A
:10465C001F070F1C120A16040914121B1F1F140D1E
:10466C000F10161E050C1C0B1E0E1312191D0B0D14
:10467C0001151805090D0E1610100B0D10131E0246
:10468C00041F0F1A0201140B010C000C0D1B0F1B45
:10469C000A11161A0716000C141B071C03020C0433
:1046AC001C031A181C1E0F0F15191003140F181EBB
:1046BC000902150114040D151313071F130D031E06
:1046CC00020F15180C110910040E061D1915041EE5
:1046DC00160C0710191C161F0F02070A0C0E0701E7
:1046EC0003150810190E0C0217120F07100A0F02EF
:1046FC0001000308100716140819190D140D030EE8
:10470C000D01051C050708120C03151E021E1B13B8
:10471C000F171A0C0D1F07130007030A0A0C121DA2
:10472C000D170801151D17021D1212071A0E0B008A
:10473C000200151E061910180410010F1A1A0F1278
:10474C000C02030B09181F0418160B1A0D10120873
:10475C001A17070A1A1B180003070900151C110366
:10476C000B0C1E06160405040F16010C0110140B7D
:10477C000E1F0517050B100D0B081D160110181F29
:10478C000D081B1B1302001710040807170B0A0B4C
:10479C001011061D010E161E0A02081C0D10191907
:1047AC000407050F1B181A1A1F030E1A16070F1FE2
:1047BC001B0F02131511000116160D0F040D030F1C
:1047CC001C0401180B1501021F14130A14151F13D6
:1047DC001108041618040B0F121B1A131A1E0A1BAD
:1047EC000E12001D081D18111C07160B1A08150AAD
:1047FC000F0E141D00131D16051E0B0D1A02161F8D
:10480C000D0202110B16101E190F0117101B110EA1
:10481C00150B140203150010100B161A0F1F0F1294
:10482C00091F1B0D0E1F0E141E18100D1E0E0C1E34
:10483C000B1A1616100F101F0F0D131E0511161C38
:10484C00171F030B1D1F0E16010F0701111915065B
:10485C0016140709030904021C1E081B1B0F12095E
:10486C000716141A0C10121C16031C04030F161F27
:10487C001D0C1D0C091305060A1C031000010C115C
:10488C00101A0F111E14181C0F16091300121F09F1
:10489C001109121704011216100C071005051F1D23
:1048AC001E0F0D021E0F141E04000901170C000F21
:1048BC00031D0E13101C07171A1D14050B1A1E10BE
:1048CC00121E021A06061A01101119101701000601
:1048DC00071F000B1602190E1B0E0D171A0C1213C4
:1048EC000819070B081E041B0C1B091C110E191AA6
:1048FC00130701071A010A11070F1D0D01061E1BD4
:10490C001C120C0B1C11041D130B09010F0E041DA2
:10491C00061D0B0A170716170D130813020C0F1997
:10492C0005171615001D181016021917180917016E
:10493C001A0A121405190019171D081F1011121E3E
:10494C001A070A161807000610071316180514186C
:10495C0009151D141C0216101B12161F1D10131BFB
:10496C00171D0F0C070402110B050815180D1F124B
:10497C0013110D14100F160E12061A15010A02024D
:10498C001A1C130C0F07191A071301010403020E4A
:10499C00101A0B12090B110F1107140B031719081E
:1049AC00001309171E081E13081A0D0B0210020D16
:1049BC00060F140D1D0215171C0D15080F0C0D0EEE
:1049CC001E05171C020E1D1917081E121D1B0909A6
:1049DC00150E0209110D0E0A131D190B01041E17D9
:1049EC000D0E0B02101C081407050C0F0A08051AF3
:1049FC00161B13051C110E0E06140B1B0A1F0806A2
:104A0C00040F121111010703181F0D1E080C0C0ABC
:104A1C000E03080C190614131C101A06150C160B91
:104A2C00050E0A1A0C02090D01081B170804140ABA
:104A3C0011130D190B13131F10100D091407070B6D
:104A4C000B18120E101C0015030702021216091285
:104A5C000017061B121A1F1607190E0513191E1B19
:104A6C00121607100811040F0C1B110F1710001051
:104A7C001F1106171606150B0D07001D1B1A060C29
:104A8C001D06091310160D0F1501111B0505160730
:104A9C001D0D0F00021F161115150015021E1D0607
:104AAC0005060C0F15170005111A12100D00131F17
:104ABC000D0808120E00141012110B020411021E24
:104ACC001B0F041818170B1613160D1C08080F09CA
:104ADC00150E020B161E001613131D17091F061FA9
:104AEC000111140D1E081D0C021B08080D150D14C8
:104AFC0016120F0E1F05031A150919050F0F0017B3
:104B0C000F1E0012191A101D06051C1D1B0B0B0E77
:104B1C00070A1119060C061A1A180911061F0D029C
:104B2C001C17031B020A0A0A06180A0E1E12160389
:104B3C000B13141C0E0A0B1016181E1B0D0B0E0358
:104B4C000D181D010B1C1D01051901141001041A6F
:104B5C0000000E0C0A010601060C0F0C1D1E1201A2
:104B6C001F140006160B151E1B0A1C1E0E1A050020
:104B7C00130D041C10191E0E07130C1B170E1B0211
:104B8C000A0D041F1F18121209071F0F0A0C000F21
:104B9C00080B1808070F0D1A0F040C131E0E081221
:104BAC00071B0A17001F08170B1B121416150200FF
:104BBC00140B041B091D0A141412191809060C15E0
:104BCC001E09160B1A140905070715180F001702F2
:104BDC000C0202151316050E080D1D021D0C1618DD
:104BEC0000171001080809191C0D17061B110E17C8
:104BFC00011D1C1F12071F011C1E0A111D0A1C1966
:104C0C001B100B0A1613190A140B01120A03030CBE
:104C1C0017100D080B000C0F0F061F0E1E011309A9
:104C2C001C120C1316081103090F0B1F031E091D70
:104C3C001B150D1E05010116150E0E031A12080682
:104C4C00091B101C0F0A030D0D0012060C0419127F
:104C5C001100041603150A1F161E130E120C12193E
:104C6C000F151705100C0C09040B11060D17171056
:104C7C0001100A160A17010E0B0C09171801010B6B
:104C8C00101F16051600171F04070B0309111A0332
:104C9C001B041C181815111A1B1612011E141511C1
:104CAC00121D1A15020F1115160D0C0B091F0A04F3
:104CBC001C190D09051D1C0D0C1E091B19030006E2
:104CCC00000E131E0F1C1009070312050E10010015
:104CDC001F1E131A12051C0A081814171003171E8E
:104CEC00091F1800021E0F1C11191A050C0F0B1F9F
:104CFC001E1F01000A0A1108091715171F091409AC
:104D0C000D040E1511121A091B0204190E131E168E
:104D1C000700150D160F0B0C0018120415150610B4
:104D2C00050A01181B07100B07150A1E0F19051D84
:104D3C001D071C1E110B0901111D17050D1C1D163D
:104D4C000F07081E1B0C11050309081E0A0E101A6A
:104D5C001E0E040E0C101F0A1A030C100C00120F5E
:104D6C001D110D09111A1E1D0D0D1C040A0D011E1D
:104D7C00140C130C050A1C1B160A1A02010D0A0E40
:104D8C00060C13071C101905031D140208041C172C
:104D9C000F130C130E031614120B121A15111913F0
:104DAC001D1A081F1F1B1C05011312011C171013C1
:104DBC00000E0E1C161719081917020D131F121AC4
:104DCC00001B10140D11040007010A110D151C1CF9
:104DDC000A061115050C0C081102100D0B1C0A0803
:104DEC00021E0F180214011E191D0B04040D0119CB
:104DFC00010D1B0A0A0A14070E1A130209060E0EDD
:104E0C000A17170A110502190B15020714041902C7
:104E1C001C05000317051F061B1C0C0F1C1E0E0582
:104E2C00021A12141E05180218080302191A091482
:104E3C00051D060F01100C060F041F051308041D99
:104E4C00171D1C1F091804131209060E1E03031349
:104E5C000C19161B051F0C1D091C121A0903031D26
:104E6C00080D111A09170A1B05131D080601010369
:104E7C000315050F011C1C180E071C071F14161D0B
:104E8C001F13041C1E061814101A0F02071E1309F8
:104E9C00020C1D101B1F0311010E071D0B0B1E0115
:104EAC00170B081F1B02000C141B07151A19170EE1
:104EBC001A0E0C041F1A02030B04010F1C151811F7
:104ECC000B0F0601030B0111020C1D15011A030B2C
:104EDC000501011F17071D0B07161E071A180E0FC9
:104EEC0012040C1D1D191416160E1A0C030C151F8A
:104EFC001602170500011A0E00130D120E0E1501E5
:104F0C001F0E051F1303010F1304141C00080217B6
:104F1C000718030A0912171A1812161018111E1165
:104F2C00030315101F171B0D1D1711170B0B110A5F
:104F3C001A1510131613141115161B16070C130043
:104F4C00101B141703001A1611060F191D0F1E0F34
:104F5C0003190C11151C1B01110D0707161A171537
:104F6C0003050D14001015140D1304141C1E0C084D
:104F7C001C0D191B1A01110C1A061A051D181609FD
:104F8C001801060D0A051F0E1B0E0F120E0B1D0B22
:104F9C00120B140A1B061C021A0905110D1C19040C
:104FAC0013050E0504180F010D0C0A0A0A17010847
:104FBC000007051D15131A060B090E0C0304070335
:104FCC00000C1E00191B1312181E18121E170517A1
:104FDC00061D08090013071A090F101A171B1202D5
:104FEC000608041E1F071A000808090F15081C03E1
:104FFC0007131B03140A0314151B1C1706190103B2
:10500C0016090E1200051A000312071500191609CD
:10501C00140A1B00001D1701081D1D1F091A0A0E7A
:10502C0012041F0011121C121A1900180D061A195D
:10503C001B0B01031F1A0B1C160C02090603100292
:10504C0004051B0F19061912121F1C081E01190842
:10505C001B111B0B00041906000415101F11051C55
:10506C0004030804011A1E0D1E071D0002021D0177
:10507C001E0209151D0010151619101D1E1E1D0AE5
:10508C00050A1B051A01130E031704080204170264
:10509C000A0D0A06110A10080B08061F191D141018
:1050AC0016191C1F1611131C0C10160A15111712A9
:1050BC001B100E1707170F000C1419101615151FBF
:1050CC000B1F0D091F05151B15150D1E0115121DA6
:1050DC001A06150F0F15081F0F0E071208150D1DB8
:1050EC001113110F0B0814101408080E09071307DD
:1050FC000B170B1F1102110F0B1F021D0F08060AB5
:10510C00101803030F0D041F0611111C1209060BB6
:10511C0000050C171E101D1407000210001F0606B8
:10512C000B110C0C0115150705100B070711181C9A
:10513C0010070510150C070E1A03030D0A0E0600B6
:10514C00030D1C0D0D071F1B1A0900180B0F1B124A
:10515C000B1C071A04071C0B0209141D0C0C0C0762
:10516C00160716180404131A000112181D1D0B1330
:10517C0011110216031F111B1316141A1514160BFA
:10518C001400010A03060B011B1D09091A12111048
:10519C0001041D0E1B1D1318171806030C0E031506
:1051AC00141A0D1A0219161409011F12181D1C0DC0
:1051BC000A06071105081A12111C000C080606062F
:1051CC0006150913061416101D03041711150E1ECF
:1051DC00070D0B03011E0111121B04060816140007
:1051EC000D13010B08111007030C060A170D1902F9
:1051FC000C0B1C0E04061B181B071C1A12060E089F
:10520C0015060F101813130A0D0D060211180F1E98
:10521C001C00160B100A1F091C03120909051D0599
:10522C0000121D190A070F040B02130C0E0E11139A
:10523C000903110A1E0A0F1C1F1100081307180975
:10524C00140E0A06021C0E0E1205190A0D131E0866
:10525C001C131D1C0D00041F1F101B1C06010E0F20
:10526C000919150C1909001F150907190B0A0D103E
:10527C000E0A16161900020C03071B031F00151447
:10528C00021F160C0A16051000050C1A1B1C16071B
:10529C001917151A101D0B000C131F1814181B1FAF
:1052AC0009010B06121D1D1402141703020C0F1119
:1052BC001E060E131B0D001907151D1C17060218D0
:1052CC0018020C0A0D0A0819181B0116031A100FE4
:1052DC00091E111E011F11131513091E021C1803A0
:1052EC00171908021D0F020418001917031F0301D8
:1052FC001500150714141C0E020C0A0B13060414CB
:10530C0005121E000F1E091402090F1111001311B2
:10531C00091C0A01130B1A02121D11111504020E9D
:10532C001B1A0E1306040F1B180E1F1D181517053C
:10533C00141D0F090116050314191D081C0A101859
:10534C000F020C1E0811001908181A030613130477
:10535C001A131D091F06100C061F00071112120547
:10536C000B14020A11010D121F1007160C0A0F174D
:10537C001D120D0C0201160D0E011A111E0F0F0736
:10538C0003121B121D121D0B090A160E1E171A01F1
:10539C001F131C030007120409091C181A060D1010
:1053AC000F1713091218071A05111E061F160114E0
:1053BC001D0E061E0A161009141C11081717180BBF
:1053CC0010061C13191A17121D0D080E0507170FBE
:1053DC001D15001A0E12041D1213190B0A00100BC6
:1053EC0002190B09110E1919161D1E160A1605168F
:1053FC000D1C02101A12151B100A04031F030700C0
:10540C00051F1905071E0108101113160D19170396
:10541C0010010F1E0508180E0E0C131F13171C0C71
:10542C000215051E080D1F1A10011515051A091372
:10543C0010170E07011310190E061A04171E1A1D49
:10544C0012150D1E101D0F1B09080D101B0C150736
:10545C00030E0E001318180F00151E0F0414121152
:10546C000A0E04170B1F0B0B0513100A1E1B130A35
:10547C000B100F10040F1E1018121A1809060E0A22
:10548C00101613131E01011E0A0D100C1501051E1A
:10549C000C15181E0A02080F181B091C19110302FF
:1054AC0003180B191A181C0716010C1E0F120A02EE
:1054BC000D0811160E130F121319180F1E0B1D16B3
:1054CC00150D1E06090B15181C050D12150A0315D2
:1054DC000E0F1C1F01171C1E0E070C0F18101D1C85
:1054EC000A0608071D18151C0F050D0113020610DE
:1054FC001E0810161608141B09191E11170D0D196C
:10550C001812011F040A0D0F131A0D170019190692
:10551C000F1A050A08110F0B110D1B0A070F131F89
:10552C001F140C021D16051A030A1E161D13050165
:10553C00121700161F171E1E06090514111A100249
:10554C0018041F1419170D01161B1F0C0E0302183B
:10555C0008191D0D190002071E0E050F0B1F011552
:10556C0002081F160A011B0514021A0518040D1A4D
:10557C0009051F0F101F190A1F051F1F0102171302
:10558C000708151A1707040C0D05110A131B0F1623
:10559C0012051617001D0C120C111D15090A0F0807
:1055AC001C0004001B061803030200071D18050D40
:1055BC00131E071D17161A1F0100070806160C09E3
:1055CC0016140F031008071C0409021A021A1F1FD5
:1055DC000E121E1001020E06150012090C0602090D
:1055EC001519011F11071D00041B090F1F121D05A2
:1055FC00091F08000402030E1D0D031711091914CD
:10560C001D19120E1B17091002171A1E190401027C
:10561C0015191711100B1F060E081B1C0C1B10164E
:10562C00140D081701021C050A05091C09071E198F
:10563C0005190F081B000919080D000302101209A7
:10564C001E0B0F0F171A14141C1B1C010A0B00063F
:10565C00070B0015061B180E090C1C0F041C171841
:10566C00170F130B0E100C0610131A0D1200131C2F
:10567C000F0F0615060506160B1C1209121502153E
:10568C00160703160F00090E161F040A111D120B24
:10569C0003130B051D120E06001515041415011528
:1056AC001C05120D070B160C0F0B10080C18120210
:1056BC0006140406031E0617161D1E0C180D131DCA
:1056CC000F0A0D061D070512081E0F071A121F06DA
:1056DC001E101D0E081F0509031B1A110F1315149C
:1056EC0004151008161A09141E1201071E03041FB4
:1056FC001704160D071917101D1D05151316091B78
:10570C000F141004090A13070B0A1E05121D1A08A0
:10571C00090A031705011F0F0F02131711030813B2
:10572C001C0615041705031619080D121707080C8B
:10573C000905130304021908121107180E0D090BA1
:10574C001B0F1B0E11070F0413101219111D150539
:10575C00101709011A1A19120210091C0A0F020754
:10576C00041006120A110D0F131F18090A170B0249
:10577C000A12001A0A0F0C0A021E1610100D150F31
:10578C001106150900001C0B17171A01060D1B0E2C
:10579C00130C081C180619001B0F111B1F1A0706E7
:1057AC00150F1E0807021E1F1E161C0603101D0BCC
:1057BC00150717131D121C070B15031B120C1304D2
:1057CC000F170D181E151500081E0C071F051D05BB
:1057DC0013140D0C130F1A131D1311121A081B118D
:1057EC000309030A1F100A0D0E000C0B0C071714EB
:1057FC0004180C090F0D1B0A0818131D0C021910A4
:10580C001D060C1B15120C1513171D0B070F0A1078
:10581C00070D061400091A16061F0F1A1514070F88
:10582C001C1D0B0B08041D18051F07130B0C091A64
:10583C001A181914041F110C1A07101D1C0B131E17
:10584C00111B080B081718081D091218101E081335
:10585C000D11071F1A170A181D1200101C02031E27
:10586C00061C1E03001B0F0D04120215141B1F1720
:10587C00030D0301131011000B07180D06061F0270
:10588C0002091A180B0E1313120703030102151445
:10589C000B030F17180A101A181302030A0B020C29
:1058AC001D0E12141E0117081F020817161B1F19B4
:1058BC00030F071B0A0C191E000D030216181606FF
:1058CC001E1312161D160A02021717150F0C1203BF
:1058DC001B1912131B051F1B0C00130D141006149F
:1058EC00051B1D08181C1D09040A051317130114A8
:1058FC001618180B0F180E0B1F13131605141A1D60
:10590C00150F0F0C0401150D091E181E110C0F0597
:10591C00001406080C010A121801051806080F14C9
:10592C001517150B05101D0F111D1016110910164A
:10593C000906021C14140D0A18090416181D111757
:10594C001014140F12121819170F1F07000A05074D
:10595C0016050A05140D0200070C07121405120790
:10596C00030F110D1E1014101F1E141A141F070202
:10597C001E0614120D140508190D1D16121D0B19F7
:10598C0006001E16161806021E07100313031A1F14
:10599C001C0C1A0B1A160D041C1C0F031D031C00E7
:1059AC001F0417071A0F1D16060603150C04160103
:1059BC00091E190805161913121E04110419191CB5
:1059CC001D0A0501191018141E0F0F00001D040BE1
:1059DC00140A07040E010F1107060C09101A1812ED
:1059EC00140C020E1C1916170C0F00191F0C1901A0
:1059FC0003130E0A030E1A191F0F0D0218130607B4
:105A0C001309070E091709061B181104131409159D
:105A1C00021406081C17001C110A19070C18001692
:105A2C00010C0417110C000119161F1C0B070C128A
:105A3C001B0816050B051D0A0B1D151E080F1A0D4C
:105A4C000D0D010E1D0D09181B1C100A1A091D182D
:105A5C000D1A0E1A151E07081C14120214090D1823
:105A6C001B0A0E0810150A140515130B0F0E03064E
:105A7C0004100B090F0C13090609021D10010E0E60
:105A8C00061E190A1E1E1F0E0B08121204090418FA
:105A9C000802011A0A180B1D07020111131D1A1F07
:105AAC001A07050212091300180402151A1D1E000C
:105ABC001C091709191D020902171508160C051DDA
